{
	"data": {
		"bytecode": {
			"linkReferences": {},
			"object": "608060405234801561000f575f80fd5b506040518060400160405280600581526020017f4d794e46540000000000000000000000000000000000000000000000000000008152506040518060400160405280600481526020017f4d4e465400000000000000000000000000000000000000000000000000000000815250335f73ffffffffffffffffffffffffffffffffffffffff168173ffffffffffffffffffffffffffffffffffffffff16036100ed575f6040517f1e4fbdf70000000000000000000000000000000000000000000000000000000081526004016100e4919061022c565b60405180910390fd5b6100fc8161012c60201b60201c565b50816001908161010c919061047f565b50806002908161011c919061047f565b505050600160088190555061054e565b5f805f9054906101000a900473ffffffffffffffffffffffffffffffffffffffff169050815f806101000a81548173ffffffffffffffffffffffffffffffffffffffff021916908373ffffffffffffffffffffffffffffffffffffffff1602179055508173ffffffffffffffffffffffffffffffffffffffff168173ffffffffffffffffffffffffffffffffffffffff167f8be0079c531659141344cd1fd0a4f28419497f9722a3daafe3b4186f6b6457e060405160405180910390a35050565b5f73ffffffffffffffffffffffffffffffffffffffff82169050919050565b5f610216826101ed565b9050919050565b6102268161020c565b82525050565b5f60208201905061023f5f83018461021d565b92915050565b5f81519050919050565b7f4e487b71000000000000000000000000000000000000000000000000000000005f52604160045260245ffd5b7f4e487b71000000000000000000000000000000000000000000000000000000005f52602260045260245ffd5b5f60028204905060018216806102c057607f821691505b6020821081036102d3576102d261027c565b5b50919050565b5f819050815f5260205f209050919050565b5f6020601f8301049050919050565b5f82821b905092915050565b5f600883026103357fffffffffffffffffffffffffffffffffffffffffffffffffffffffffffffffff826102fa565b61033f86836102fa565b95508019841693508086168417925050509392505050565b5f819050919050565b5f819050919050565b5f61038361037e61037984610357565b610360565b610357565b9050919050565b5f819050919050565b61039c83610369565b6103b06103a88261038a565b848454610306565b825550505050565b5f90565b6103c46103b8565b6103cf818484610393565b505050565b5b818110156103f2576103e75f826103bc565b6001810190506103d5565b5050565b601f82111561043757610408816102d9565b610411846102eb565b81016020851015610420578190505b61043461042c856102eb565b8301826103d4565b50505b505050565b5f82821c905092915050565b5f6104575f198460080261043c565b1980831691505092915050565b5f61046f8383610448565b9150826002028217905092915050565b61048882610245565b67ffffffffffffffff8111156104a1576104a061024f565b5b6104ab82546102a9565b6104b68282856103f6565b5f60209050601f8311600181146104e7575f84156104d5578287015190505b6104df8582610464565b865550610546565b601f1984166104f5866102d9565b5f5b8281101561051c578489015182556001820191506020850194506020810190506104f7565b868310156105395784890151610535601f891682610448565b8355505b6001600288020188555050505b505050505050565b6126b68061055b5f395ff3fe608060405234801561000f575f80fd5b506004361061012a575f3560e01c80638da5cb5b116100ab578063c87b56dd1161006f578063c87b56dd1461033e578063d082e3811461036e578063e985e9c51461038c578063f2fde38b146103bc578063fb37e883146103d85761012a565b80638da5cb5b1461029a57806395d89b41146102b857806399a5d747146102d6578063a22cb46514610306578063b88d4fde146103225761012a565b80633bb3a24d116100f25780633bb3a24d146101e457806342842e0e146102145780636352211e1461023057806370a0823114610260578063715018a6146102905761012a565b806301ffc9a71461012e57806306fdde031461015e578063081812fc1461017c578063095ea7b3146101ac57806323b872dd146101c8575b5f80fd5b61014860048036038101906101439190611b6c565b610408565b6040516101559190611bb1565b60405180910390f35b610166610468565b6040516101739190611c3a565b60405180910390f35b61019660048036038101906101919190611c8d565b6104f8565b6040516101a39190611cf7565b60405180910390f35b6101c660048036038101906101c19190611d3a565b610513565b005b6101e260048036038101906101dd9190611d78565b610529565b005b6101fe60048036038101906101f99190611c8d565b610628565b60405161020b9190611c3a565b60405180910390f35b61022e60048036038101906102299190611d78565b61063a565b005b61024a60048036038101906102459190611c8d565b610659565b6040516102579190611cf7565b60405180910390f35b61027a60048036038101906102759190611dc8565b61066a565b6040516102879190611e02565b60405180910390f35b610298610720565b005b6102a2610733565b6040516102af9190611cf7565b60405180910390f35b6102c061075a565b6040516102cd9190611c3a565b60405180910390f35b6102f060048036038101906102eb9190611c8d565b6107ea565b6040516102fd9190611e02565b60405180910390f35b610320600480360381019061031b9190611e45565b610800565b005b61033c60048036038101906103379190611faf565b610816565b005b61035860048036038101906103539190611c8d565b61083b565b6040516103659190611c3a565b60405180910390f35b610376610946565b6040516103839190611e02565b60405180910390f35b6103a660048036038101906103a1919061202f565b61094c565b6040516103b39190611bb1565b60405180910390f35b6103d660048036038101906103d19190611dc8565b6109da565b005b6103f260048036038101906103ed919061210b565b610a5e565b6040516103ff9190611e02565b60405180910390f35b5f634906490660e01b7bffffffffffffffffffffffffffffffffffffffffffffffffffffffff1916827bffffffffffffffffffffffffffffffffffffffffffffffffffffffff19161480610461575061046082610add565b5b9050919050565b6060600180546104779061217f565b80601f01602080910402602001604051908101604052809291908181526020018280546104a39061217f565b80156104ee5780601f106104c5576101008083540402835291602001916104ee565b820191905f5260205f20905b8154815290600101906020018083116104d157829003601f168201915b5050505050905090565b5f61050282610bbe565b5061050c82610c44565b9050919050565b6105258282610520610c7d565b610c84565b5050565b5f73ffffffffffffffffffffffffffffffffffffffff168273ffffffffffffffffffffffffffffffffffffffff1603610599575f6040517f64a0ae920000000000000000000000000000000000000000000000000000000081526004016105909190611cf7565b60405180910390fd5b5f6105ac83836105a7610c7d565b610c96565b90508373ffffffffffffffffffffffffffffffffffffffff168173ffffffffffffffffffffffffffffffffffffffff1614610622578382826040517f64283d7b000000000000000000000000000000000000000000000000000000008152600401610619939291906121af565b60405180910390fd5b50505050565b60606106338261083b565b9050919050565b61065483838360405180602001604052805f815250610816565b505050565b5f61066382610bbe565b9050919050565b5f8073ffffffffffffffffffffffffffffffffffffffff168273ffffffffffffffffffffffffffffffffffffffff16036106db575f6040517f89c62b640000000000000000000000000000000000000000000000000000000081526004016106d29190611cf7565b60405180910390fd5b60045f8373ffffffffffffffffffffffffffffffffffffffff1673ffffffffffffffffffffffffffffffffffffffff1681526020019081526020015f20549050919050565b610728610ea1565b6107315f610f28565b565b5f805f9054906101000a900473ffffffffffffffffffffffffffffffffffffffff16905090565b6060600280546107699061217f565b80601f01602080910402602001604051908101604052809291908181526020018280546107959061217f565b80156107e05780601f106107b7576101008083540402835291602001916107e0565b820191905f5260205f20905b8154815290600101906020018083116107c357829003601f168201915b5050505050905090565b5f6103e8826107f9919061223e565b9050919050565b61081261080b610c7d565b8383610fe9565b5050565b610821848484610529565b61083561082c610c7d565b85858585611152565b50505050565b606061084682610bbe565b505f60075f8481526020019081526020015f2080546108649061217f565b80601f01602080910402602001604051908101604052809291908181526020018280546108909061217f565b80156108db5780601f106108b2576101008083540402835291602001916108db565b820191905f5260205f20905b8154815290600101906020018083116108be57829003601f168201915b505050505090505f6108eb6112fe565b90505f8151036108ff578192505050610941565b5f8251111561093357808260405160200161091b9291906122a8565b60405160208183030381529060405292505050610941565b61093c84611314565b925050505b919050565b60085481565b5f60065f8473ffffffffffffffffffffffffffffffffffffffff1673ffffffffffffffffffffffffffffffffffffffff1681526020019081526020015f205f8373ffffffffffffffffffffffffffffffffffffffff1673ffffffffffffffffffffffffffffffffffffffff1681526020019081526020015f205f9054906101000a900460ff16905092915050565b6109e2610ea1565b5f73ffffffffffffffffffffffffffffffffffffffff168173ffffffffffffffffffffffffffffffffffffffff1603610a52575f6040517f1e4fbdf7000000000000000000000000000000000000000000000000000000008152600401610a499190611cf7565b60405180910390fd5b610a5b81610f28565b50565b5f806008549050610a6f338261137a565b610a798184611397565b60085f815480929190610a8b906122cb565b91905055503373ffffffffffffffffffffffffffffffffffffffff16817f0176f203df400d7bd5f1b1c9ef36c16709bf3b5d9fd35f000a6bae32393f66c360405160405180910390a380915050919050565b5f7f80ac58cd000000000000000000000000000000000000000000000000000000007bffffffffffffffffffffffffffffffffffffffffffffffffffffffff1916827bffffffffffffffffffffffffffffffffffffffffffffffffffffffff19161480610ba757507f5b5e139f000000000000000000000000000000000000000000000000000000007bffffffffffffffffffffffffffffffffffffffffffffffffffffffff1916827bffffffffffffffffffffffffffffffffffffffffffffffffffffffff1916145b80610bb75750610bb6826113f1565b5b9050919050565b5f80610bc98361145a565b90505f73ffffffffffffffffffffffffffffffffffffffff168173ffffffffffffffffffffffffffffffffffffffff1603610c3b57826040517f7e273289000000000000000000000000000000000000000000000000000000008152600401610c329190611e02565b60405180910390fd5b80915050919050565b5f60055f8381526020019081526020015f205f9054906101000a900473ffffffffffffffffffffffffffffffffffffffff169050919050565b5f33905090565b610c918383836001611493565b505050565b5f80610ca18461145a565b90505f73ffffffffffffffffffffffffffffffffffffffff168373ffffffffffffffffffffffffffffffffffffffff1614610ce257610ce1818486611652565b5b5f73ffffffffffffffffffffffffffffffffffffffff168173ffffffffffffffffffffffffffffffffffffffff1614610d6d57610d215f855f80611493565b600160045f8373ffffffffffffffffffffffffffffffffffffffff1673ffffffffffffffffffffffffffffffffffffffff1681526020019081526020015f205f82825403925050819055505b5f73ffffffffffffffffffffffffffffffffffffffff168573ffffffffffffffffffffffffffffffffffffffff1614610dec57600160045f8773ffffffffffffffffffffffffffffffffffffffff1673ffffffffffffffffffffffffffffffffffffffff1681526020019081526020015f205f82825401925050819055505b8460035f8681526020019081526020015f205f6101000a81548173ffffffffffffffffffffffffffffffffffffffff021916908373ffffffffffffffffffffffffffffffffffffffff160217905550838573ffffffffffffffffffffffffffffffffffffffff168273ffffffffffffffffffffffffffffffffffffffff167fddf252ad1be2c89b69c2b068fc378daa952ba7f163c4a11628f55a4df523b3ef60405160405180910390a4809150509392505050565b610ea9610c7d565b73ffffffffffffffffffffffffffffffffffffffff16610ec7610733565b73ffffffffffffffffffffffffffffffffffffffff1614610f2657610eea610c7d565b6040517f118cdaa7000000000000000000000000000000000000000000000000000000008152600401610f1d9190611cf7565b60405180910390fd5b565b5f805f9054906101000a900473ffffffffffffffffffffffffffffffffffffffff169050815f806101000a81548173ffffffffffffffffffffffffffffffffffffffff021916908373ffffffffffffffffffffffffffffffffffffffff1602179055508173ffffffffffffffffffffffffffffffffffffffff168173ffffffffffffffffffffffffffffffffffffffff167f8be0079c531659141344cd1fd0a4f28419497f9722a3daafe3b4186f6b6457e060405160405180910390a35050565b5f73ffffffffffffffffffffffffffffffffffffffff168273ffffffffffffffffffffffffffffffffffffffff160361105957816040517f5b08ba180000000000000000000000000000000000000000000000000000000081526004016110509190611cf7565b60405180910390fd5b8060065f8573ffffffffffffffffffffffffffffffffffffffff1673ffffffffffffffffffffffffffffffffffffffff1681526020019081526020015f205f8473ffffffffffffffffffffffffffffffffffffffff1673ffffffffffffffffffffffffffffffffffffffff1681526020019081526020015f205f6101000a81548160ff0219169083151502179055508173ffffffffffffffffffffffffffffffffffffffff168373ffffffffffffffffffffffffffffffffffffffff167f17307eab39ab6107e8899845ad3d59bd9653f200f220920489ca2b5937696c31836040516111459190611bb1565b60405180910390a3505050565b5f8373ffffffffffffffffffffffffffffffffffffffff163b11156112f7578273ffffffffffffffffffffffffffffffffffffffff1663150b7a02868685856040518563ffffffff1660e01b81526004016111b09493929190612364565b6020604051808303815f875af19250505080156111eb57506040513d601f19601f820116820180604052508101906111e891906123c2565b60015b61126c573d805f8114611219576040519150601f19603f3d011682016040523d82523d5f602084013e61121e565b606091505b505f81510361126457836040517f64a0ae9200000000000000000000000000000000000000000000000000000000815260040161125b9190611cf7565b60405180910390fd5b805181602001fd5b63150b7a0260e01b7bffffffffffffffffffffffffffffffffffffffffffffffffffffffff1916817bffffffffffffffffffffffffffffffffffffffffffffffffffffffff1916146112f557836040517f64a0ae920000000000000000000000000000000000000000000000000000000081526004016112ec9190611cf7565b60405180910390fd5b505b5050505050565b606060405180602001604052805f815250905090565b606061131f82610bbe565b505f6113296112fe565b90505f8151116113475760405180602001604052805f815250611372565b8061135184611715565b6040516020016113629291906122a8565b6040516020818303038152906040525b915050919050565b611393828260405180602001604052805f8152506117df565b5050565b8060075f8481526020019081526020015f2090816113b5919061258a565b507ff8e1a15aba9398e019f0b49df1a4fde98ee17ae345cb5f6b5e2c27f5033e8ce7826040516113e59190611e02565b60405180910390a15050565b5f7f01ffc9a7000000000000000000000000000000000000000000000000000000007bffffffffffffffffffffffffffffffffffffffffffffffffffffffff1916827bffffffffffffffffffffffffffffffffffffffffffffffffffffffff1916149050919050565b5f60035f8381526020019081526020015f205f9054906101000a900473ffffffffffffffffffffffffffffffffffffffff169050919050565b80806114cb57505f73ffffffffffffffffffffffffffffffffffffffff168273ffffffffffffffffffffffffffffffffffffffff1614155b156115fd575f6114da84610bbe565b90505f73ffffffffffffffffffffffffffffffffffffffff168373ffffffffffffffffffffffffffffffffffffffff161415801561154457508273ffffffffffffffffffffffffffffffffffffffff168173ffffffffffffffffffffffffffffffffffffffff1614155b80156115575750611555818461094c565b155b1561159957826040517fa9fbf51f0000000000000000000000000000000000000000000000000000000081526004016115909190611cf7565b60405180910390fd5b81156115fb57838573ffffffffffffffffffffffffffffffffffffffff168273ffffffffffffffffffffffffffffffffffffffff167f8c5be1e5ebec7d5bd14f71427d1e84f3dd0314c0f7b2291e5b200ac8c7c3b92560405160405180910390a45b505b8360055f8581526020019081526020015f205f6101000a81548173ffffffffffffffffffffffffffffffffffffffff021916908373ffffffffffffffffffffffffffffffffffffffff16021790555050505050565b61165d838383611802565b611710575f73ffffffffffffffffffffffffffffffffffffffff168373ffffffffffffffffffffffffffffffffffffffff16036116d157806040517f7e2732890000000000000000000000000000000000000000000000000000000081526004016116c89190611e02565b60405180910390fd5b81816040517f177e802f000000000000000000000000000000000000000000000000000000008152600401611707929190612659565b60405180910390fd5b505050565b60605f6001611723846118c2565b0190505f8167ffffffffffffffff81111561174157611740611e8b565b5b6040519080825280601f01601f1916602001820160405280156117735781602001600182028036833780820191505090505b5090505f82602001820190505b6001156117d4578080600190039150507f3031323334353637383961626364656600000000000000000000000000000000600a86061a8153600a85816117c9576117c86121e4565b5b0494505f8503611780575b819350505050919050565b6117e98383611a13565b6117fd6117f4610c7d565b5f858585611152565b505050565b5f8073ffffffffffffffffffffffffffffffffffffffff168373ffffffffffffffffffffffffffffffffffffffff16141580156118b957508273ffffffffffffffffffffffffffffffffffffffff168473ffffffffffffffffffffffffffffffffffffffff16148061187a5750611879848461094c565b5b806118b857508273ffffffffffffffffffffffffffffffffffffffff166118a083610c44565b73ffffffffffffffffffffffffffffffffffffffff16145b5b90509392505050565b5f805f90507a184f03e93ff9f4daa797ed6e38ed64bf6a1f010000000000000000831061191e577a184f03e93ff9f4daa797ed6e38ed64bf6a1f0100000000000000008381611914576119136121e4565b5b0492506040810190505b6d04ee2d6d415b85acef8100000000831061195b576d04ee2d6d415b85acef81000000008381611951576119506121e4565b5b0492506020810190505b662386f26fc10000831061198a57662386f26fc1000083816119805761197f6121e4565b5b0492506010810190505b6305f5e10083106119b3576305f5e10083816119a9576119a86121e4565b5b0492506008810190505b61271083106119d85761271083816119ce576119cd6121e4565b5b0492506004810190505b606483106119fb57606483816119f1576119f06121e4565b5b0492506002810190505b600a8310611a0a576001810190505b80915050919050565b5f73ffffffffffffffffffffffffffffffffffffffff168273ffffffffffffffffffffffffffffffffffffffff1603611a83575f6040517f64a0ae92000000000000000000000000000000000000000000000000000000008152600401611a7a9190611cf7565b60405180910390fd5b5f611a8f83835f610c96565b90505f73ffffffffffffffffffffffffffffffffffffffff168173ffffffffffffffffffffffffffffffffffffffff1614611b01575f6040517f73c6ac6e000000000000000000000000000000000000000000000000000000008152600401611af89190611cf7565b60405180910390fd5b505050565b5f604051905090565b5f80fd5b5f80fd5b5f7fffffffff0000000000000000000000000000000000000000000000000000000082169050919050565b611b4b81611b17565b8114611b55575f80fd5b50565b5f81359050611b6681611b42565b92915050565b5f60208284031215611b8157611b80611b0f565b5b5f611b8e84828501611b58565b91505092915050565b5f8115159050919050565b611bab81611b97565b82525050565b5f602082019050611bc45f830184611ba2565b92915050565b5f81519050919050565b5f82825260208201905092915050565b8281835e5f83830152505050565b5f601f19601f8301169050919050565b5f611c0c82611bca565b611c168185611bd4565b9350611c26818560208601611be4565b611c2f81611bf2565b840191505092915050565b5f6020820190508181035f830152611c528184611c02565b905092915050565b5f819050919050565b611c6c81611c5a565b8114611c76575f80fd5b50565b5f81359050611c8781611c63565b92915050565b5f60208284031215611ca257611ca1611b0f565b5b5f611caf84828501611c79565b91505092915050565b5f73ffffffffffffffffffffffffffffffffffffffff82169050919050565b5f611ce182611cb8565b9050919050565b611cf181611cd7565b82525050565b5f602082019050611d0a5f830184611ce8565b92915050565b611d1981611cd7565b8114611d23575f80fd5b50565b5f81359050611d3481611d10565b92915050565b5f8060408385031215611d5057611d4f611b0f565b5b5f611d5d85828601611d26565b9250506020611d6e85828601611c79565b9150509250929050565b5f805f60608486031215611d8f57611d8e611b0f565b5b5f611d9c86828701611d26565b9350506020611dad86828701611d26565b9250506040611dbe86828701611c79565b9150509250925092565b5f60208284031215611ddd57611ddc611b0f565b5b5f611dea84828501611d26565b91505092915050565b611dfc81611c5a565b82525050565b5f602082019050611e155f830184611df3565b92915050565b611e2481611b97565b8114611e2e575f80fd5b50565b5f81359050611e3f81611e1b565b92915050565b5f8060408385031215611e5b57611e5a611b0f565b5b5f611e6885828601611d26565b9250506020611e7985828601611e31565b9150509250929050565b5f80fd5b5f80fd5b7f4e487b71000000000000000000000000000000000000000000000000000000005f52604160045260245ffd5b611ec182611bf2565b810181811067ffffffffffffffff82111715611ee057611edf611e8b565b5b80604052505050565b5f611ef2611b06565b9050611efe8282611eb8565b919050565b5f67ffffffffffffffff821115611f1d57611f1c611e8b565b5b611f2682611bf2565b9050602081019050919050565b828183375f83830152505050565b5f611f53611f4e84611f03565b611ee9565b905082815260208101848484011115611f6f57611f6e611e87565b5b611f7a848285611f33565b509392505050565b5f82601f830112611f9657611f95611e83565b5b8135611fa6848260208601611f41565b91505092915050565b5f805f8060808587031215611fc757611fc6611b0f565b5b5f611fd487828801611d26565b9450506020611fe587828801611d26565b9350506040611ff687828801611c79565b925050606085013567ffffffffffffffff81111561201757612016611b13565b5b61202387828801611f82565b91505092959194509250565b5f806040838503121561204557612044611b0f565b5b5f61205285828601611d26565b925050602061206385828601611d26565b9150509250929050565b5f67ffffffffffffffff82111561208757612086611e8b565b5b61209082611bf2565b9050602081019050919050565b5f6120af6120aa8461206d565b611ee9565b9050828152602081018484840111156120cb576120ca611e87565b5b6120d6848285611f33565b509392505050565b5f82601f8301126120f2576120f1611e83565b5b813561210284826020860161209d565b91505092915050565b5f602082840312156121205761211f611b0f565b5b5f82013567ffffffffffffffff81111561213d5761213c611b13565b5b612149848285016120de565b91505092915050565b7f4e487b71000000000000000000000000000000000000000000000000000000005f52602260045260245ffd5b5f600282049050600182168061219657607f821691505b6020821081036121a9576121a8612152565b5b50919050565b5f6060820190506121c25f830186611ce8565b6121cf6020830185611df3565b6121dc6040830184611ce8565b949350505050565b7f4e487b71000000000000000000000000000000000000000000000000000000005f52601260045260245ffd5b7f4e487b71000000000000000000000000000000000000000000000000000000005f52601160045260245ffd5b5f61224882611c5a565b915061225383611c5a565b925082612263576122626121e4565b5b828204905092915050565b5f81905092915050565b5f61228282611bca565b61228c818561226e565b935061229c818560208601611be4565b80840191505092915050565b5f6122b38285612278565b91506122bf8284612278565b91508190509392505050565b5f6122d582611c5a565b91507fffffffffffffffffffffffffffffffffffffffffffffffffffffffffffffffff820361230757612306612211565b5b600182019050919050565b5f81519050919050565b5f82825260208201905092915050565b5f61233682612312565b612340818561231c565b9350612350818560208601611be4565b61235981611bf2565b840191505092915050565b5f6080820190506123775f830187611ce8565b6123846020830186611ce8565b6123916040830185611df3565b81810360608301526123a3818461232c565b905095945050505050565b5f815190506123bc81611b42565b92915050565b5f602082840312156123d7576123d6611b0f565b5b5f6123e4848285016123ae565b91505092915050565b5f819050815f5260205f209050919050565b5f6020601f8301049050919050565b5f82821b905092915050565b5f600883026124497fffffffffffffffffffffffffffffffffffffffffffffffffffffffffffffffff8261240e565b612453868361240e565b95508019841693508086168417925050509392505050565b5f819050919050565b5f61248e61248961248484611c5a565b61246b565b611c5a565b9050919050565b5f819050919050565b6124a783612474565b6124bb6124b382612495565b84845461241a565b825550505050565b5f90565b6124cf6124c3565b6124da81848461249e565b505050565b5b818110156124fd576124f25f826124c7565b6001810190506124e0565b5050565b601f82111561254257612513816123ed565b61251c846123ff565b8101602085101561252b578190505b61253f612537856123ff565b8301826124df565b50505b505050565b5f82821c905092915050565b5f6125625f1984600802612547565b1980831691505092915050565b5f61257a8383612553565b9150826002028217905092915050565b61259382611bca565b67ffffffffffffffff8111156125ac576125ab611e8b565b5b6125b6825461217f565b6125c1828285612501565b5f60209050601f8311600181146125f2575f84156125e0578287015190505b6125ea858261256f565b865550612651565b601f198416612600866123ed565b5f5b8281101561262757848901518255600182019150602085019450602081019050612602565b868310156126445784890151612640601f891682612553565b8355505b6001600288020188555050505b505050505050565b5f60408201905061266c5f830185611ce8565b6126796020830184611df3565b939250505056fea2646970667358221220a5a2381d7489a357b6b2a0ecd8d0c600ec3aeb2a0a3fe3350afff106ae10348d64736f6c634300081a0033",
			"opcodes": "PUSH1 0x80 PUSH1 0x40 MSTORE CALLVALUE DUP1 ISZERO PUSH2 0xF JUMPI PUSH0 DUP1 REVERT JUMPDEST POP PUSH1 0x40 MLOAD DUP1 PUSH1 0x40 ADD PUSH1 0x40 MSTORE DUP1 PUSH1 0x5 DUP2 MSTORE PUSH1 0x20 ADD PUSH32 0x4D794E4654000000000000000000000000000000000000000000000000000000 DUP2 MSTORE POP PUSH1 0x40 MLOAD DUP1 PUSH1 0x40 ADD PUSH1 0x40 MSTORE DUP1 PUSH1 0x4 DUP2 MSTORE PUSH1 0x20 ADD PUSH32 0x4D4E465400000000000000000000000000000000000000000000000000000000 DUP2 MSTORE POP CALLER PUSH0 PUSH20 0xFFFFFFFFFFFFFFFFFFFFFFFFFFFFFFFFFFFFFFFF AND DUP2 PUSH20 0xFFFFFFFFFFFFFFFFFFFFFFFFFFFFFFFFFFFFFFFF AND SUB PUSH2 0xED JUMPI PUSH0 PUSH1 0x40 MLOAD PUSH32 0x1E4FBDF700000000000000000000000000000000000000000000000000000000 DUP2 MSTORE PUSH1 0x4 ADD PUSH2 0xE4 SWAP2 SWAP1 PUSH2 0x22C JUMP JUMPDEST PUSH1 0x40 MLOAD DUP1 SWAP2 SUB SWAP1 REVERT JUMPDEST PUSH2 0xFC DUP2 PUSH2 0x12C PUSH1 0x20 SHL PUSH1 0x20 SHR JUMP JUMPDEST POP DUP2 PUSH1 0x1 SWAP1 DUP2 PUSH2 0x10C SWAP2 SWAP1 PUSH2 0x47F JUMP JUMPDEST POP DUP1 PUSH1 0x2 SWAP1 DUP2 PUSH2 0x11C SWAP2 SWAP1 PUSH2 0x47F JUMP JUMPDEST POP POP POP PUSH1 0x1 PUSH1 0x8 DUP2 SWAP1 SSTORE POP PUSH2 0x54E JUMP JUMPDEST PUSH0 DUP1 PUSH0 SWAP1 SLOAD SWAP1 PUSH2 0x100 EXP SWAP1 DIV PUSH20 0xFFFFFFFFFFFFFFFFFFFFFFFFFFFFFFFFFFFFFFFF AND SWAP1 POP DUP2 PUSH0 DUP1 PUSH2 0x100 EXP DUP2 SLOAD DUP2 PUSH20 0xFFFFFFFFFFFFFFFFFFFFFFFFFFFFFFFFFFFFFFFF MUL NOT AND SWAP1 DUP4 PUSH20 0xFFFFFFFFFFFFFFFFFFFFFFFFFFFFFFFFFFFFFFFF AND MUL OR SWAP1 SSTORE POP DUP2 PUSH20 0xFFFFFFFFFFFFFFFFFFFFFFFFFFFFFFFFFFFFFFFF AND DUP2 PUSH20 0xFFFFFFFFFFFFFFFFFFFFFFFFFFFFFFFFFFFFFFFF AND PUSH32 0x8BE0079C531659141344CD1FD0A4F28419497F9722A3DAAFE3B4186F6B6457E0 PUSH1 0x40 MLOAD PUSH1 0x40 MLOAD DUP1 SWAP2 SUB SWAP1 LOG3 POP POP JUMP JUMPDEST PUSH0 PUSH20 0xFFFFFFFFFFFFFFFFFFFFFFFFFFFFFFFFFFFFFFFF DUP3 AND SWAP1 POP SWAP2 SWAP1 POP JUMP JUMPDEST PUSH0 PUSH2 0x216 DUP3 PUSH2 0x1ED JUMP JUMPDEST SWAP1 POP SWAP2 SWAP1 POP JUMP JUMPDEST PUSH2 0x226 DUP2 PUSH2 0x20C JUMP JUMPDEST DUP3 MSTORE POP POP JUMP JUMPDEST PUSH0 PUSH1 0x20 DUP3 ADD SWAP1 POP PUSH2 0x23F PUSH0 DUP4 ADD DUP5 PUSH2 0x21D JUMP JUMPDEST SWAP3 SWAP2 POP POP JUMP JUMPDEST PUSH0 DUP2 MLOAD SWAP1 POP SWAP2 SWAP1 POP JUMP JUMPDEST PUSH32 0x4E487B7100000000000000000000000000000000000000000000000000000000 PUSH0 MSTORE PUSH1 0x41 PUSH1 0x4 MSTORE PUSH1 0x24 PUSH0 REVERT JUMPDEST PUSH32 0x4E487B7100000000000000000000000000000000000000000000000000000000 PUSH0 MSTORE PUSH1 0x22 PUSH1 0x4 MSTORE PUSH1 0x24 PUSH0 REVERT JUMPDEST PUSH0 PUSH1 0x2 DUP3 DIV SWAP1 POP PUSH1 0x1 DUP3 AND DUP1 PUSH2 0x2C0 JUMPI PUSH1 0x7F DUP3 AND SWAP2 POP JUMPDEST PUSH1 0x20 DUP3 LT DUP2 SUB PUSH2 0x2D3 JUMPI PUSH2 0x2D2 PUSH2 0x27C JUMP JUMPDEST JUMPDEST POP SWAP2 SWAP1 POP JUMP JUMPDEST PUSH0 DUP2 SWAP1 POP DUP2 PUSH0 MSTORE PUSH1 0x20 PUSH0 KECCAK256 SWAP1 POP SWAP2 SWAP1 POP JUMP JUMPDEST PUSH0 PUSH1 0x20 PUSH1 0x1F DUP4 ADD DIV SWAP1 POP SWAP2 SWAP1 POP JUMP JUMPDEST PUSH0 DUP3 DUP3 SHL SWAP1 POP SWAP3 SWAP2 POP POP JUMP JUMPDEST PUSH0 PUSH1 0x8 DUP4 MUL PUSH2 0x335 PUSH32 0xFFFFFFFFFFFFFFFFFFFFFFFFFFFFFFFFFFFFFFFFFFFFFFFFFFFFFFFFFFFFFFFF DUP3 PUSH2 0x2FA JUMP JUMPDEST PUSH2 0x33F DUP7 DUP4 PUSH2 0x2FA JUMP JUMPDEST SWAP6 POP DUP1 NOT DUP5 AND SWAP4 POP DUP1 DUP7 AND DUP5 OR SWAP3 POP POP POP SWAP4 SWAP3 POP POP POP JUMP JUMPDEST PUSH0 DUP2 SWAP1 POP SWAP2 SWAP1 POP JUMP JUMPDEST PUSH0 DUP2 SWAP1 POP SWAP2 SWAP1 POP JUMP JUMPDEST PUSH0 PUSH2 0x383 PUSH2 0x37E PUSH2 0x379 DUP5 PUSH2 0x357 JUMP JUMPDEST PUSH2 0x360 JUMP JUMPDEST PUSH2 0x357 JUMP JUMPDEST SWAP1 POP SWAP2 SWAP1 POP JUMP JUMPDEST PUSH0 DUP2 SWAP1 POP SWAP2 SWAP1 POP JUMP JUMPDEST PUSH2 0x39C DUP4 PUSH2 0x369 JUMP JUMPDEST PUSH2 0x3B0 PUSH2 0x3A8 DUP3 PUSH2 0x38A JUMP JUMPDEST DUP5 DUP5 SLOAD PUSH2 0x306 JUMP JUMPDEST DUP3 SSTORE POP POP POP POP JUMP JUMPDEST PUSH0 SWAP1 JUMP JUMPDEST PUSH2 0x3C4 PUSH2 0x3B8 JUMP JUMPDEST PUSH2 0x3CF DUP2 DUP5 DUP5 PUSH2 0x393 JUMP JUMPDEST POP POP POP JUMP JUMPDEST JUMPDEST DUP2 DUP2 LT ISZERO PUSH2 0x3F2 JUMPI PUSH2 0x3E7 PUSH0 DUP3 PUSH2 0x3BC JUMP JUMPDEST PUSH1 0x1 DUP2 ADD SWAP1 POP PUSH2 0x3D5 JUMP JUMPDEST POP POP JUMP JUMPDEST PUSH1 0x1F DUP3 GT ISZERO PUSH2 0x437 JUMPI PUSH2 0x408 DUP2 PUSH2 0x2D9 JUMP JUMPDEST PUSH2 0x411 DUP5 PUSH2 0x2EB JUMP JUMPDEST DUP2 ADD PUSH1 0x20 DUP6 LT ISZERO PUSH2 0x420 JUMPI DUP2 SWAP1 POP JUMPDEST PUSH2 0x434 PUSH2 0x42C DUP6 PUSH2 0x2EB JUMP JUMPDEST DUP4 ADD DUP3 PUSH2 0x3D4 JUMP JUMPDEST POP POP JUMPDEST POP POP POP JUMP JUMPDEST PUSH0 DUP3 DUP3 SHR SWAP1 POP SWAP3 SWAP2 POP POP JUMP JUMPDEST PUSH0 PUSH2 0x457 PUSH0 NOT DUP5 PUSH1 0x8 MUL PUSH2 0x43C JUMP JUMPDEST NOT DUP1 DUP4 AND SWAP2 POP POP SWAP3 SWAP2 POP POP JUMP JUMPDEST PUSH0 PUSH2 0x46F DUP4 DUP4 PUSH2 0x448 JUMP JUMPDEST SWAP2 POP DUP3 PUSH1 0x2 MUL DUP3 OR SWAP1 POP SWAP3 SWAP2 POP POP JUMP JUMPDEST PUSH2 0x488 DUP3 PUSH2 0x245 JUMP JUMPDEST PUSH8 0xFFFFFFFFFFFFFFFF DUP2 GT ISZERO PUSH2 0x4A1 JUMPI PUSH2 0x4A0 PUSH2 0x24F JUMP JUMPDEST JUMPDEST PUSH2 0x4AB DUP3 SLOAD PUSH2 0x2A9 JUMP JUMPDEST PUSH2 0x4B6 DUP3 DUP3 DUP6 PUSH2 0x3F6 JUMP JUMPDEST PUSH0 PUSH1 0x20 SWAP1 POP PUSH1 0x1F DUP4 GT PUSH1 0x1 DUP2 EQ PUSH2 0x4E7 JUMPI PUSH0 DUP5 ISZERO PUSH2 0x4D5 JUMPI DUP3 DUP8 ADD MLOAD SWAP1 POP JUMPDEST PUSH2 0x4DF DUP6 DUP3 PUSH2 0x464 JUMP JUMPDEST DUP7 SSTORE POP PUSH2 0x546 JUMP JUMPDEST PUSH1 0x1F NOT DUP5 AND PUSH2 0x4F5 DUP7 PUSH2 0x2D9 JUMP JUMPDEST PUSH0 JUMPDEST DUP3 DUP2 LT ISZERO PUSH2 0x51C JUMPI DUP5 DUP10 ADD MLOAD DUP3 SSTORE PUSH1 0x1 DUP3 ADD SWAP2 POP PUSH1 0x20 DUP6 ADD SWAP5 POP PUSH1 0x20 DUP2 ADD SWAP1 POP PUSH2 0x4F7 JUMP JUMPDEST DUP7 DUP4 LT ISZERO PUSH2 0x539 JUMPI DUP5 DUP10 ADD MLOAD PUSH2 0x535 PUSH1 0x1F DUP10 AND DUP3 PUSH2 0x448 JUMP JUMPDEST DUP4 SSTORE POP JUMPDEST PUSH1 0x1 PUSH1 0x2 DUP9 MUL ADD DUP9 SSTORE POP POP POP JUMPDEST POP POP POP POP POP POP JUMP JUMPDEST PUSH2 0x26B6 DUP1 PUSH2 0x55B PUSH0 CODECOPY PUSH0 RETURN INVALID PUSH1 0x80 PUSH1 0x40 MSTORE CALLVALUE DUP1 ISZERO PUSH2 0xF JUMPI PUSH0 DUP1 REVERT JUMPDEST POP PUSH1 0x4 CALLDATASIZE LT PUSH2 0x12A JUMPI PUSH0 CALLDATALOAD PUSH1 0xE0 SHR DUP1 PUSH4 0x8DA5CB5B GT PUSH2 0xAB JUMPI DUP1 PUSH4 0xC87B56DD GT PUSH2 0x6F JUMPI DUP1 PUSH4 0xC87B56DD EQ PUSH2 0x33E JUMPI DUP1 PUSH4 0xD082E381 EQ PUSH2 0x36E JUMPI DUP1 PUSH4 0xE985E9C5 EQ PUSH2 0x38C JUMPI DUP1 PUSH4 0xF2FDE38B EQ PUSH2 0x3BC JUMPI DUP1 PUSH4 0xFB37E883 EQ PUSH2 0x3D8 JUMPI PUSH2 0x12A JUMP JUMPDEST DUP1 PUSH4 0x8DA5CB5B EQ PUSH2 0x29A JUMPI DUP1 PUSH4 0x95D89B41 EQ PUSH2 0x2B8 JUMPI DUP1 PUSH4 0x99A5D747 EQ PUSH2 0x2D6 JUMPI DUP1 PUSH4 0xA22CB465 EQ PUSH2 0x306 JUMPI DUP1 PUSH4 0xB88D4FDE EQ PUSH2 0x322 JUMPI PUSH2 0x12A JUMP JUMPDEST DUP1 PUSH4 0x3BB3A24D GT PUSH2 0xF2 JUMPI DUP1 PUSH4 0x3BB3A24D EQ PUSH2 0x1E4 JUMPI DUP1 PUSH4 0x42842E0E EQ PUSH2 0x214 JUMPI DUP1 PUSH4 0x6352211E EQ PUSH2 0x230 JUMPI DUP1 PUSH4 0x70A08231 EQ PUSH2 0x260 JUMPI DUP1 PUSH4 0x715018A6 EQ PUSH2 0x290 JUMPI PUSH2 0x12A JUMP JUMPDEST DUP1 PUSH4 0x1FFC9A7 EQ PUSH2 0x12E JUMPI DUP1 PUSH4 0x6FDDE03 EQ PUSH2 0x15E JUMPI DUP1 PUSH4 0x81812FC EQ PUSH2 0x17C JUMPI DUP1 PUSH4 0x95EA7B3 EQ PUSH2 0x1AC JUMPI DUP1 PUSH4 0x23B872DD EQ PUSH2 0x1C8 JUMPI JUMPDEST PUSH0 DUP1 REVERT JUMPDEST PUSH2 0x148 PUSH1 0x4 DUP1 CALLDATASIZE SUB DUP2 ADD SWAP1 PUSH2 0x143 SWAP2 SWAP1 PUSH2 0x1B6C JUMP JUMPDEST PUSH2 0x408 JUMP JUMPDEST PUSH1 0x40 MLOAD PUSH2 0x155 SWAP2 SWAP1 PUSH2 0x1BB1 JUMP JUMPDEST PUSH1 0x40 MLOAD DUP1 SWAP2 SUB SWAP1 RETURN JUMPDEST PUSH2 0x166 PUSH2 0x468 JUMP JUMPDEST PUSH1 0x40 MLOAD PUSH2 0x173 SWAP2 SWAP1 PUSH2 0x1C3A JUMP JUMPDEST PUSH1 0x40 MLOAD DUP1 SWAP2 SUB SWAP1 RETURN JUMPDEST PUSH2 0x196 PUSH1 0x4 DUP1 CALLDATASIZE SUB DUP2 ADD SWAP1 PUSH2 0x191 SWAP2 SWAP1 PUSH2 0x1C8D JUMP JUMPDEST PUSH2 0x4F8 JUMP JUMPDEST PUSH1 0x40 MLOAD PUSH2 0x1A3 SWAP2 SWAP1 PUSH2 0x1CF7 JUMP JUMPDEST PUSH1 0x40 MLOAD DUP1 SWAP2 SUB SWAP1 RETURN JUMPDEST PUSH2 0x1C6 PUSH1 0x4 DUP1 CALLDATASIZE SUB DUP2 ADD SWAP1 PUSH2 0x1C1 SWAP2 SWAP1 PUSH2 0x1D3A JUMP JUMPDEST PUSH2 0x513 JUMP JUMPDEST STOP JUMPDEST PUSH2 0x1E2 PUSH1 0x4 DUP1 CALLDATASIZE SUB DUP2 ADD SWAP1 PUSH2 0x1DD SWAP2 SWAP1 PUSH2 0x1D78 JUMP JUMPDEST PUSH2 0x529 JUMP JUMPDEST STOP JUMPDEST PUSH2 0x1FE PUSH1 0x4 DUP1 CALLDATASIZE SUB DUP2 ADD SWAP1 PUSH2 0x1F9 SWAP2 SWAP1 PUSH2 0x1C8D JUMP JUMPDEST PUSH2 0x628 JUMP JUMPDEST PUSH1 0x40 MLOAD PUSH2 0x20B SWAP2 SWAP1 PUSH2 0x1C3A JUMP JUMPDEST PUSH1 0x40 MLOAD DUP1 SWAP2 SUB SWAP1 RETURN JUMPDEST PUSH2 0x22E PUSH1 0x4 DUP1 CALLDATASIZE SUB DUP2 ADD SWAP1 PUSH2 0x229 SWAP2 SWAP1 PUSH2 0x1D78 JUMP JUMPDEST PUSH2 0x63A JUMP JUMPDEST STOP JUMPDEST PUSH2 0x24A PUSH1 0x4 DUP1 CALLDATASIZE SUB DUP2 ADD SWAP1 PUSH2 0x245 SWAP2 SWAP1 PUSH2 0x1C8D JUMP JUMPDEST PUSH2 0x659 JUMP JUMPDEST PUSH1 0x40 MLOAD PUSH2 0x257 SWAP2 SWAP1 PUSH2 0x1CF7 JUMP JUMPDEST PUSH1 0x40 MLOAD DUP1 SWAP2 SUB SWAP1 RETURN JUMPDEST PUSH2 0x27A PUSH1 0x4 DUP1 CALLDATASIZE SUB DUP2 ADD SWAP1 PUSH2 0x275 SWAP2 SWAP1 PUSH2 0x1DC8 JUMP JUMPDEST PUSH2 0x66A JUMP JUMPDEST PUSH1 0x40 MLOAD PUSH2 0x287 SWAP2 SWAP1 PUSH2 0x1E02 JUMP JUMPDEST PUSH1 0x40 MLOAD DUP1 SWAP2 SUB SWAP1 RETURN JUMPDEST PUSH2 0x298 PUSH2 0x720 JUMP JUMPDEST STOP JUMPDEST PUSH2 0x2A2 PUSH2 0x733 JUMP JUMPDEST PUSH1 0x40 MLOAD PUSH2 0x2AF SWAP2 SWAP1 PUSH2 0x1CF7 JUMP JUMPDEST PUSH1 0x40 MLOAD DUP1 SWAP2 SUB SWAP1 RETURN JUMPDEST PUSH2 0x2C0 PUSH2 0x75A JUMP JUMPDEST PUSH1 0x40 MLOAD PUSH2 0x2CD SWAP2 SWAP1 PUSH2 0x1C3A JUMP JUMPDEST PUSH1 0x40 MLOAD DUP1 SWAP2 SUB SWAP1 RETURN JUMPDEST PUSH2 0x2F0 PUSH1 0x4 DUP1 CALLDATASIZE SUB DUP2 ADD SWAP1 PUSH2 0x2EB SWAP2 SWAP1 PUSH2 0x1C8D JUMP JUMPDEST PUSH2 0x7EA JUMP JUMPDEST PUSH1 0x40 MLOAD PUSH2 0x2FD SWAP2 SWAP1 PUSH2 0x1E02 JUMP JUMPDEST PUSH1 0x40 MLOAD DUP1 SWAP2 SUB SWAP1 RETURN JUMPDEST PUSH2 0x320 PUSH1 0x4 DUP1 CALLDATASIZE SUB DUP2 ADD SWAP1 PUSH2 0x31B SWAP2 SWAP1 PUSH2 0x1E45 JUMP JUMPDEST PUSH2 0x800 JUMP JUMPDEST STOP JUMPDEST PUSH2 0x33C PUSH1 0x4 DUP1 CALLDATASIZE SUB DUP2 ADD SWAP1 PUSH2 0x337 SWAP2 SWAP1 PUSH2 0x1FAF JUMP JUMPDEST PUSH2 0x816 JUMP JUMPDEST STOP JUMPDEST PUSH2 0x358 PUSH1 0x4 DUP1 CALLDATASIZE SUB DUP2 ADD SWAP1 PUSH2 0x353 SWAP2 SWAP1 PUSH2 0x1C8D JUMP JUMPDEST PUSH2 0x83B JUMP JUMPDEST PUSH1 0x40 MLOAD PUSH2 0x365 SWAP2 SWAP1 PUSH2 0x1C3A JUMP JUMPDEST PUSH1 0x40 MLOAD DUP1 SWAP2 SUB SWAP1 RETURN JUMPDEST PUSH2 0x376 PUSH2 0x946 JUMP JUMPDEST PUSH1 0x40 MLOAD PUSH2 0x383 SWAP2 SWAP1 PUSH2 0x1E02 JUMP JUMPDEST PUSH1 0x40 MLOAD DUP1 SWAP2 SUB SWAP1 RETURN JUMPDEST PUSH2 0x3A6 PUSH1 0x4 DUP1 CALLDATASIZE SUB DUP2 ADD SWAP1 PUSH2 0x3A1 SWAP2 SWAP1 PUSH2 0x202F JUMP JUMPDEST PUSH2 0x94C JUMP JUMPDEST PUSH1 0x40 MLOAD PUSH2 0x3B3 SWAP2 SWAP1 PUSH2 0x1BB1 JUMP JUMPDEST PUSH1 0x40 MLOAD DUP1 SWAP2 SUB SWAP1 RETURN JUMPDEST PUSH2 0x3D6 PUSH1 0x4 DUP1 CALLDATASIZE SUB DUP2 ADD SWAP1 PUSH2 0x3D1 SWAP2 SWAP1 PUSH2 0x1DC8 JUMP JUMPDEST PUSH2 0x9DA JUMP JUMPDEST STOP JUMPDEST PUSH2 0x3F2 PUSH1 0x4 DUP1 CALLDATASIZE SUB DUP2 ADD SWAP1 PUSH2 0x3ED SWAP2 SWAP1 PUSH2 0x210B JUMP JUMPDEST PUSH2 0xA5E JUMP JUMPDEST PUSH1 0x40 MLOAD PUSH2 0x3FF SWAP2 SWAP1 PUSH2 0x1E02 JUMP JUMPDEST PUSH1 0x40 MLOAD DUP1 SWAP2 SUB SWAP1 RETURN JUMPDEST PUSH0 PUSH4 0x49064906 PUSH1 0xE0 SHL PUSH28 0xFFFFFFFFFFFFFFFFFFFFFFFFFFFFFFFFFFFFFFFFFFFFFFFFFFFFFFFF NOT AND DUP3 PUSH28 0xFFFFFFFFFFFFFFFFFFFFFFFFFFFFFFFFFFFFFFFFFFFFFFFFFFFFFFFF NOT AND EQ DUP1 PUSH2 0x461 JUMPI POP PUSH2 0x460 DUP3 PUSH2 0xADD JUMP JUMPDEST JUMPDEST SWAP1 POP SWAP2 SWAP1 POP JUMP JUMPDEST PUSH1 0x60 PUSH1 0x1 DUP1 SLOAD PUSH2 0x477 SWAP1 PUSH2 0x217F JUMP JUMPDEST DUP1 PUSH1 0x1F ADD PUSH1 0x20 DUP1 SWAP2 DIV MUL PUSH1 0x20 ADD PUSH1 0x40 MLOAD SWAP1 DUP2 ADD PUSH1 0x40 MSTORE DUP1 SWAP3 SWAP2 SWAP1 DUP2 DUP2 MSTORE PUSH1 0x20 ADD DUP3 DUP1 SLOAD PUSH2 0x4A3 SWAP1 PUSH2 0x217F JUMP JUMPDEST DUP1 ISZERO PUSH2 0x4EE JUMPI DUP1 PUSH1 0x1F LT PUSH2 0x4C5 JUMPI PUSH2 0x100 DUP1 DUP4 SLOAD DIV MUL DUP4 MSTORE SWAP2 PUSH1 0x20 ADD SWAP2 PUSH2 0x4EE JUMP JUMPDEST DUP3 ADD SWAP2 SWAP1 PUSH0 MSTORE PUSH1 0x20 PUSH0 KECCAK256 SWAP1 JUMPDEST DUP2 SLOAD DUP2 MSTORE SWAP1 PUSH1 0x1 ADD SWAP1 PUSH1 0x20 ADD DUP1 DUP4 GT PUSH2 0x4D1 JUMPI DUP3 SWAP1 SUB PUSH1 0x1F AND DUP3 ADD SWAP2 JUMPDEST POP POP POP POP POP SWAP1 POP SWAP1 JUMP JUMPDEST PUSH0 PUSH2 0x502 DUP3 PUSH2 0xBBE JUMP JUMPDEST POP PUSH2 0x50C DUP3 PUSH2 0xC44 JUMP JUMPDEST SWAP1 POP SWAP2 SWAP1 POP JUMP JUMPDEST PUSH2 0x525 DUP3 DUP3 PUSH2 0x520 PUSH2 0xC7D JUMP JUMPDEST PUSH2 0xC84 JUMP JUMPDEST POP POP JUMP JUMPDEST PUSH0 PUSH20 0xFFFFFFFFFFFFFFFFFFFFFFFFFFFFFFFFFFFFFFFF AND DUP3 PUSH20 0xFFFFFFFFFFFFFFFFFFFFFFFFFFFFFFFFFFFFFFFF AND SUB PUSH2 0x599 JUMPI PUSH0 PUSH1 0x40 MLOAD PUSH32 0x64A0AE9200000000000000000000000000000000000000000000000000000000 DUP2 MSTORE PUSH1 0x4 ADD PUSH2 0x590 SWAP2 SWAP1 PUSH2 0x1CF7 JUMP JUMPDEST PUSH1 0x40 MLOAD DUP1 SWAP2 SUB SWAP1 REVERT JUMPDEST PUSH0 PUSH2 0x5AC DUP4 DUP4 PUSH2 0x5A7 PUSH2 0xC7D JUMP JUMPDEST PUSH2 0xC96 JUMP JUMPDEST SWAP1 POP DUP4 PUSH20 0xFFFFFFFFFFFFFFFFFFFFFFFFFFFFFFFFFFFFFFFF AND DUP2 PUSH20 0xFFFFFFFFFFFFFFFFFFFFFFFFFFFFFFFFFFFFFFFF AND EQ PUSH2 0x622 JUMPI DUP4 DUP3 DUP3 PUSH1 0x40 MLOAD PUSH32 0x64283D7B00000000000000000000000000000000000000000000000000000000 DUP2 MSTORE PUSH1 0x4 ADD PUSH2 0x619 SWAP4 SWAP3 SWAP2 SWAP1 PUSH2 0x21AF JUMP JUMPDEST PUSH1 0x40 MLOAD DUP1 SWAP2 SUB SWAP1 REVERT JUMPDEST POP POP POP POP JUMP JUMPDEST PUSH1 0x60 PUSH2 0x633 DUP3 PUSH2 0x83B JUMP JUMPDEST SWAP1 POP SWAP2 SWAP1 POP JUMP JUMPDEST PUSH2 0x654 DUP4 DUP4 DUP4 PUSH1 0x40 MLOAD DUP1 PUSH1 0x20 ADD PUSH1 0x40 MSTORE DUP1 PUSH0 DUP2 MSTORE POP PUSH2 0x816 JUMP JUMPDEST POP POP POP JUMP JUMPDEST PUSH0 PUSH2 0x663 DUP3 PUSH2 0xBBE JUMP JUMPDEST SWAP1 POP SWAP2 SWAP1 POP JUMP JUMPDEST PUSH0 DUP1 PUSH20 0xFFFFFFFFFFFFFFFFFFFFFFFFFFFFFFFFFFFFFFFF AND DUP3 PUSH20 0xFFFFFFFFFFFFFFFFFFFFFFFFFFFFFFFFFFFFFFFF AND SUB PUSH2 0x6DB JUMPI PUSH0 PUSH1 0x40 MLOAD PUSH32 0x89C62B6400000000000000000000000000000000000000000000000000000000 DUP2 MSTORE PUSH1 0x4 ADD PUSH2 0x6D2 SWAP2 SWAP1 PUSH2 0x1CF7 JUMP JUMPDEST PUSH1 0x40 MLOAD DUP1 SWAP2 SUB SWAP1 REVERT JUMPDEST PUSH1 0x4 PUSH0 DUP4 PUSH20 0xFFFFFFFFFFFFFFFFFFFFFFFFFFFFFFFFFFFFFFFF AND PUSH20 0xFFFFFFFFFFFFFFFFFFFFFFFFFFFFFFFFFFFFFFFF AND DUP2 MSTORE PUSH1 0x20 ADD SWAP1 DUP2 MSTORE PUSH1 0x20 ADD PUSH0 KECCAK256 SLOAD SWAP1 POP SWAP2 SWAP1 POP JUMP JUMPDEST PUSH2 0x728 PUSH2 0xEA1 JUMP JUMPDEST PUSH2 0x731 PUSH0 PUSH2 0xF28 JUMP JUMPDEST JUMP JUMPDEST PUSH0 DUP1 PUSH0 SWAP1 SLOAD SWAP1 PUSH2 0x100 EXP SWAP1 DIV PUSH20 0xFFFFFFFFFFFFFFFFFFFFFFFFFFFFFFFFFFFFFFFF AND SWAP1 POP SWAP1 JUMP JUMPDEST PUSH1 0x60 PUSH1 0x2 DUP1 SLOAD PUSH2 0x769 SWAP1 PUSH2 0x217F JUMP JUMPDEST DUP1 PUSH1 0x1F ADD PUSH1 0x20 DUP1 SWAP2 DIV MUL PUSH1 0x20 ADD PUSH1 0x40 MLOAD SWAP1 DUP2 ADD PUSH1 0x40 MSTORE DUP1 SWAP3 SWAP2 SWAP1 DUP2 DUP2 MSTORE PUSH1 0x20 ADD DUP3 DUP1 SLOAD PUSH2 0x795 SWAP1 PUSH2 0x217F JUMP JUMPDEST DUP1 ISZERO PUSH2 0x7E0 JUMPI DUP1 PUSH1 0x1F LT PUSH2 0x7B7 JUMPI PUSH2 0x100 DUP1 DUP4 SLOAD DIV MUL DUP4 MSTORE SWAP2 PUSH1 0x20 ADD SWAP2 PUSH2 0x7E0 JUMP JUMPDEST DUP3 ADD SWAP2 SWAP1 PUSH0 MSTORE PUSH1 0x20 PUSH0 KECCAK256 SWAP1 JUMPDEST DUP2 SLOAD DUP2 MSTORE SWAP1 PUSH1 0x1 ADD SWAP1 PUSH1 0x20 ADD DUP1 DUP4 GT PUSH2 0x7C3 JUMPI DUP3 SWAP1 SUB PUSH1 0x1F AND DUP3 ADD SWAP2 JUMPDEST POP POP POP POP POP SWAP1 POP SWAP1 JUMP JUMPDEST PUSH0 PUSH2 0x3E8 DUP3 PUSH2 0x7F9 SWAP2 SWAP1 PUSH2 0x223E JUMP JUMPDEST SWAP1 POP SWAP2 SWAP1 POP JUMP JUMPDEST PUSH2 0x812 PUSH2 0x80B PUSH2 0xC7D JUMP JUMPDEST DUP4 DUP4 PUSH2 0xFE9 JUMP JUMPDEST POP POP JUMP JUMPDEST PUSH2 0x821 DUP5 DUP5 DUP5 PUSH2 0x529 JUMP JUMPDEST PUSH2 0x835 PUSH2 0x82C PUSH2 0xC7D JUMP JUMPDEST DUP6 DUP6 DUP6 DUP6 PUSH2 0x1152 JUMP JUMPDEST POP POP POP POP JUMP JUMPDEST PUSH1 0x60 PUSH2 0x846 DUP3 PUSH2 0xBBE JUMP JUMPDEST POP PUSH0 PUSH1 0x7 PUSH0 DUP5 DUP2 MSTORE PUSH1 0x20 ADD SWAP1 DUP2 MSTORE PUSH1 0x20 ADD PUSH0 KECCAK256 DUP1 SLOAD PUSH2 0x864 SWAP1 PUSH2 0x217F JUMP JUMPDEST DUP1 PUSH1 0x1F ADD PUSH1 0x20 DUP1 SWAP2 DIV MUL PUSH1 0x20 ADD PUSH1 0x40 MLOAD SWAP1 DUP2 ADD PUSH1 0x40 MSTORE DUP1 SWAP3 SWAP2 SWAP1 DUP2 DUP2 MSTORE PUSH1 0x20 ADD DUP3 DUP1 SLOAD PUSH2 0x890 SWAP1 PUSH2 0x217F JUMP JUMPDEST DUP1 ISZERO PUSH2 0x8DB JUMPI DUP1 PUSH1 0x1F LT PUSH2 0x8B2 JUMPI PUSH2 0x100 DUP1 DUP4 SLOAD DIV MUL DUP4 MSTORE SWAP2 PUSH1 0x20 ADD SWAP2 PUSH2 0x8DB JUMP JUMPDEST DUP3 ADD SWAP2 SWAP1 PUSH0 MSTORE PUSH1 0x20 PUSH0 KECCAK256 SWAP1 JUMPDEST DUP2 SLOAD DUP2 MSTORE SWAP1 PUSH1 0x1 ADD SWAP1 PUSH1 0x20 ADD DUP1 DUP4 GT PUSH2 0x8BE JUMPI DUP3 SWAP1 SUB PUSH1 0x1F AND DUP3 ADD SWAP2 JUMPDEST POP POP POP POP POP SWAP1 POP PUSH0 PUSH2 0x8EB PUSH2 0x12FE JUMP JUMPDEST SWAP1 POP PUSH0 DUP2 MLOAD SUB PUSH2 0x8FF JUMPI DUP2 SWAP3 POP POP POP PUSH2 0x941 JUMP JUMPDEST PUSH0 DUP3 MLOAD GT ISZERO PUSH2 0x933 JUMPI DUP1 DUP3 PUSH1 0x40 MLOAD PUSH1 0x20 ADD PUSH2 0x91B SWAP3 SWAP2 SWAP1 PUSH2 0x22A8 JUMP JUMPDEST PUSH1 0x40 MLOAD PUSH1 0x20 DUP2 DUP4 SUB SUB DUP2 MSTORE SWAP1 PUSH1 0x40 MSTORE SWAP3 POP POP POP PUSH2 0x941 JUMP JUMPDEST PUSH2 0x93C DUP5 PUSH2 0x1314 JUMP JUMPDEST SWAP3 POP POP POP JUMPDEST SWAP2 SWAP1 POP JUMP JUMPDEST PUSH1 0x8 SLOAD DUP2 JUMP JUMPDEST PUSH0 PUSH1 0x6 PUSH0 DUP5 PUSH20 0xFFFFFFFFFFFFFFFFFFFFFFFFFFFFFFFFFFFFFFFF AND PUSH20 0xFFFFFFFFFFFFFFFFFFFFFFFFFFFFFFFFFFFFFFFF AND DUP2 MSTORE PUSH1 0x20 ADD SWAP1 DUP2 MSTORE PUSH1 0x20 ADD PUSH0 KECCAK256 PUSH0 DUP4 PUSH20 0xFFFFFFFFFFFFFFFFFFFFFFFFFFFFFFFFFFFFFFFF AND PUSH20 0xFFFFFFFFFFFFFFFFFFFFFFFFFFFFFFFFFFFFFFFF AND DUP2 MSTORE PUSH1 0x20 ADD SWAP1 DUP2 MSTORE PUSH1 0x20 ADD PUSH0 KECCAK256 PUSH0 SWAP1 SLOAD SWAP1 PUSH2 0x100 EXP SWAP1 DIV PUSH1 0xFF AND SWAP1 POP SWAP3 SWAP2 POP POP JUMP JUMPDEST PUSH2 0x9E2 PUSH2 0xEA1 JUMP JUMPDEST PUSH0 PUSH20 0xFFFFFFFFFFFFFFFFFFFFFFFFFFFFFFFFFFFFFFFF AND DUP2 PUSH20 0xFFFFFFFFFFFFFFFFFFFFFFFFFFFFFFFFFFFFFFFF AND SUB PUSH2 0xA52 JUMPI PUSH0 PUSH1 0x40 MLOAD PUSH32 0x1E4FBDF700000000000000000000000000000000000000000000000000000000 DUP2 MSTORE PUSH1 0x4 ADD PUSH2 0xA49 SWAP2 SWAP1 PUSH2 0x1CF7 JUMP JUMPDEST PUSH1 0x40 MLOAD DUP1 SWAP2 SUB SWAP1 REVERT JUMPDEST PUSH2 0xA5B DUP2 PUSH2 0xF28 JUMP JUMPDEST POP JUMP JUMPDEST PUSH0 DUP1 PUSH1 0x8 SLOAD SWAP1 POP PUSH2 0xA6F CALLER DUP3 PUSH2 0x137A JUMP JUMPDEST PUSH2 0xA79 DUP2 DUP5 PUSH2 0x1397 JUMP JUMPDEST PUSH1 0x8 PUSH0 DUP2 SLOAD DUP1 SWAP3 SWAP2 SWAP1 PUSH2 0xA8B SWAP1 PUSH2 0x22CB JUMP JUMPDEST SWAP2 SWAP1 POP SSTORE POP CALLER PUSH20 0xFFFFFFFFFFFFFFFFFFFFFFFFFFFFFFFFFFFFFFFF AND DUP2 PUSH32 0x176F203DF400D7BD5F1B1C9EF36C16709BF3B5D9FD35F000A6BAE32393F66C3 PUSH1 0x40 MLOAD PUSH1 0x40 MLOAD DUP1 SWAP2 SUB SWAP1 LOG3 DUP1 SWAP2 POP POP SWAP2 SWAP1 POP JUMP JUMPDEST PUSH0 PUSH32 0x80AC58CD00000000000000000000000000000000000000000000000000000000 PUSH28 0xFFFFFFFFFFFFFFFFFFFFFFFFFFFFFFFFFFFFFFFFFFFFFFFFFFFFFFFF NOT AND DUP3 PUSH28 0xFFFFFFFFFFFFFFFFFFFFFFFFFFFFFFFFFFFFFFFFFFFFFFFFFFFFFFFF NOT AND EQ DUP1 PUSH2 0xBA7 JUMPI POP PUSH32 0x5B5E139F00000000000000000000000000000000000000000000000000000000 PUSH28 0xFFFFFFFFFFFFFFFFFFFFFFFFFFFFFFFFFFFFFFFFFFFFFFFFFFFFFFFF NOT AND DUP3 PUSH28 0xFFFFFFFFFFFFFFFFFFFFFFFFFFFFFFFFFFFFFFFFFFFFFFFFFFFFFFFF NOT AND EQ JUMPDEST DUP1 PUSH2 0xBB7 JUMPI POP PUSH2 0xBB6 DUP3 PUSH2 0x13F1 JUMP JUMPDEST JUMPDEST SWAP1 POP SWAP2 SWAP1 POP JUMP JUMPDEST PUSH0 DUP1 PUSH2 0xBC9 DUP4 PUSH2 0x145A JUMP JUMPDEST SWAP1 POP PUSH0 PUSH20 0xFFFFFFFFFFFFFFFFFFFFFFFFFFFFFFFFFFFFFFFF AND DUP2 PUSH20 0xFFFFFFFFFFFFFFFFFFFFFFFFFFFFFFFFFFFFFFFF AND SUB PUSH2 0xC3B JUMPI DUP3 PUSH1 0x40 MLOAD PUSH32 0x7E27328900000000000000000000000000000000000000000000000000000000 DUP2 MSTORE PUSH1 0x4 ADD PUSH2 0xC32 SWAP2 SWAP1 PUSH2 0x1E02 JUMP JUMPDEST PUSH1 0x40 MLOAD DUP1 SWAP2 SUB SWAP1 REVERT JUMPDEST DUP1 SWAP2 POP POP SWAP2 SWAP1 POP JUMP JUMPDEST PUSH0 PUSH1 0x5 PUSH0 DUP4 DUP2 MSTORE PUSH1 0x20 ADD SWAP1 DUP2 MSTORE PUSH1 0x20 ADD PUSH0 KECCAK256 PUSH0 SWAP1 SLOAD SWAP1 PUSH2 0x100 EXP SWAP1 DIV PUSH20 0xFFFFFFFFFFFFFFFFFFFFFFFFFFFFFFFFFFFFFFFF AND SWAP1 POP SWAP2 SWAP1 POP JUMP JUMPDEST PUSH0 CALLER SWAP1 POP SWAP1 JUMP JUMPDEST PUSH2 0xC91 DUP4 DUP4 DUP4 PUSH1 0x1 PUSH2 0x1493 JUMP JUMPDEST POP POP POP JUMP JUMPDEST PUSH0 DUP1 PUSH2 0xCA1 DUP5 PUSH2 0x145A JUMP JUMPDEST SWAP1 POP PUSH0 PUSH20 0xFFFFFFFFFFFFFFFFFFFFFFFFFFFFFFFFFFFFFFFF AND DUP4 PUSH20 0xFFFFFFFFFFFFFFFFFFFFFFFFFFFFFFFFFFFFFFFF AND EQ PUSH2 0xCE2 JUMPI PUSH2 0xCE1 DUP2 DUP5 DUP7 PUSH2 0x1652 JUMP JUMPDEST JUMPDEST PUSH0 PUSH20 0xFFFFFFFFFFFFFFFFFFFFFFFFFFFFFFFFFFFFFFFF AND DUP2 PUSH20 0xFFFFFFFFFFFFFFFFFFFFFFFFFFFFFFFFFFFFFFFF AND EQ PUSH2 0xD6D JUMPI PUSH2 0xD21 PUSH0 DUP6 PUSH0 DUP1 PUSH2 0x1493 JUMP JUMPDEST PUSH1 0x1 PUSH1 0x4 PUSH0 DUP4 PUSH20 0xFFFFFFFFFFFFFFFFFFFFFFFFFFFFFFFFFFFFFFFF AND PUSH20 0xFFFFFFFFFFFFFFFFFFFFFFFFFFFFFFFFFFFFFFFF AND DUP2 MSTORE PUSH1 0x20 ADD SWAP1 DUP2 MSTORE PUSH1 0x20 ADD PUSH0 KECCAK256 PUSH0 DUP3 DUP3 SLOAD SUB SWAP3 POP POP DUP2 SWAP1 SSTORE POP JUMPDEST PUSH0 PUSH20 0xFFFFFFFFFFFFFFFFFFFFFFFFFFFFFFFFFFFFFFFF AND DUP6 PUSH20 0xFFFFFFFFFFFFFFFFFFFFFFFFFFFFFFFFFFFFFFFF AND EQ PUSH2 0xDEC JUMPI PUSH1 0x1 PUSH1 0x4 PUSH0 DUP8 PUSH20 0xFFFFFFFFFFFFFFFFFFFFFFFFFFFFFFFFFFFFFFFF AND PUSH20 0xFFFFFFFFFFFFFFFFFFFFFFFFFFFFFFFFFFFFFFFF AND DUP2 MSTORE PUSH1 0x20 ADD SWAP1 DUP2 MSTORE PUSH1 0x20 ADD PUSH0 KECCAK256 PUSH0 DUP3 DUP3 SLOAD ADD SWAP3 POP POP DUP2 SWAP1 SSTORE POP JUMPDEST DUP5 PUSH1 0x3 PUSH0 DUP7 DUP2 MSTORE PUSH1 0x20 ADD SWAP1 DUP2 MSTORE PUSH1 0x20 ADD PUSH0 KECCAK256 PUSH0 PUSH2 0x100 EXP DUP2 SLOAD DUP2 PUSH20 0xFFFFFFFFFFFFFFFFFFFFFFFFFFFFFFFFFFFFFFFF MUL NOT AND SWAP1 DUP4 PUSH20 0xFFFFFFFFFFFFFFFFFFFFFFFFFFFFFFFFFFFFFFFF AND MUL OR SWAP1 SSTORE POP DUP4 DUP6 PUSH20 0xFFFFFFFFFFFFFFFFFFFFFFFFFFFFFFFFFFFFFFFF AND DUP3 PUSH20 0xFFFFFFFFFFFFFFFFFFFFFFFFFFFFFFFFFFFFFFFF AND PUSH32 0xDDF252AD1BE2C89B69C2B068FC378DAA952BA7F163C4A11628F55A4DF523B3EF PUSH1 0x40 MLOAD PUSH1 0x40 MLOAD DUP1 SWAP2 SUB SWAP1 LOG4 DUP1 SWAP2 POP POP SWAP4 SWAP3 POP POP POP JUMP JUMPDEST PUSH2 0xEA9 PUSH2 0xC7D JUMP JUMPDEST PUSH20 0xFFFFFFFFFFFFFFFFFFFFFFFFFFFFFFFFFFFFFFFF AND PUSH2 0xEC7 PUSH2 0x733 JUMP JUMPDEST PUSH20 0xFFFFFFFFFFFFFFFFFFFFFFFFFFFFFFFFFFFFFFFF AND EQ PUSH2 0xF26 JUMPI PUSH2 0xEEA PUSH2 0xC7D JUMP JUMPDEST PUSH1 0x40 MLOAD PUSH32 0x118CDAA700000000000000000000000000000000000000000000000000000000 DUP2 MSTORE PUSH1 0x4 ADD PUSH2 0xF1D SWAP2 SWAP1 PUSH2 0x1CF7 JUMP JUMPDEST PUSH1 0x40 MLOAD DUP1 SWAP2 SUB SWAP1 REVERT JUMPDEST JUMP JUMPDEST PUSH0 DUP1 PUSH0 SWAP1 SLOAD SWAP1 PUSH2 0x100 EXP SWAP1 DIV PUSH20 0xFFFFFFFFFFFFFFFFFFFFFFFFFFFFFFFFFFFFFFFF AND SWAP1 POP DUP2 PUSH0 DUP1 PUSH2 0x100 EXP DUP2 SLOAD DUP2 PUSH20 0xFFFFFFFFFFFFFFFFFFFFFFFFFFFFFFFFFFFFFFFF MUL NOT AND SWAP1 DUP4 PUSH20 0xFFFFFFFFFFFFFFFFFFFFFFFFFFFFFFFFFFFFFFFF AND MUL OR SWAP1 SSTORE POP DUP2 PUSH20 0xFFFFFFFFFFFFFFFFFFFFFFFFFFFFFFFFFFFFFFFF AND DUP2 PUSH20 0xFFFFFFFFFFFFFFFFFFFFFFFFFFFFFFFFFFFFFFFF AND PUSH32 0x8BE0079C531659141344CD1FD0A4F28419497F9722A3DAAFE3B4186F6B6457E0 PUSH1 0x40 MLOAD PUSH1 0x40 MLOAD DUP1 SWAP2 SUB SWAP1 LOG3 POP POP JUMP JUMPDEST PUSH0 PUSH20 0xFFFFFFFFFFFFFFFFFFFFFFFFFFFFFFFFFFFFFFFF AND DUP3 PUSH20 0xFFFFFFFFFFFFFFFFFFFFFFFFFFFFFFFFFFFFFFFF AND SUB PUSH2 0x1059 JUMPI DUP2 PUSH1 0x40 MLOAD PUSH32 0x5B08BA1800000000000000000000000000000000000000000000000000000000 DUP2 MSTORE PUSH1 0x4 ADD PUSH2 0x1050 SWAP2 SWAP1 PUSH2 0x1CF7 JUMP JUMPDEST PUSH1 0x40 MLOAD DUP1 SWAP2 SUB SWAP1 REVERT JUMPDEST DUP1 PUSH1 0x6 PUSH0 DUP6 PUSH20 0xFFFFFFFFFFFFFFFFFFFFFFFFFFFFFFFFFFFFFFFF AND PUSH20 0xFFFFFFFFFFFFFFFFFFFFFFFFFFFFFFFFFFFFFFFF AND DUP2 MSTORE PUSH1 0x20 ADD SWAP1 DUP2 MSTORE PUSH1 0x20 ADD PUSH0 KECCAK256 PUSH0 DUP5 PUSH20 0xFFFFFFFFFFFFFFFFFFFFFFFFFFFFFFFFFFFFFFFF AND PUSH20 0xFFFFFFFFFFFFFFFFFFFFFFFFFFFFFFFFFFFFFFFF AND DUP2 MSTORE PUSH1 0x20 ADD SWAP1 DUP2 MSTORE PUSH1 0x20 ADD PUSH0 KECCAK256 PUSH0 PUSH2 0x100 EXP DUP2 SLOAD DUP2 PUSH1 0xFF MUL NOT AND SWAP1 DUP4 ISZERO ISZERO MUL OR SWAP1 SSTORE POP DUP2 PUSH20 0xFFFFFFFFFFFFFFFFFFFFFFFFFFFFFFFFFFFFFFFF AND DUP4 PUSH20 0xFFFFFFFFFFFFFFFFFFFFFFFFFFFFFFFFFFFFFFFF AND PUSH32 0x17307EAB39AB6107E8899845AD3D59BD9653F200F220920489CA2B5937696C31 DUP4 PUSH1 0x40 MLOAD PUSH2 0x1145 SWAP2 SWAP1 PUSH2 0x1BB1 JUMP JUMPDEST PUSH1 0x40 MLOAD DUP1 SWAP2 SUB SWAP1 LOG3 POP POP POP JUMP JUMPDEST PUSH0 DUP4 PUSH20 0xFFFFFFFFFFFFFFFFFFFFFFFFFFFFFFFFFFFFFFFF AND EXTCODESIZE GT ISZERO PUSH2 0x12F7 JUMPI DUP3 PUSH20 0xFFFFFFFFFFFFFFFFFFFFFFFFFFFFFFFFFFFFFFFF AND PUSH4 0x150B7A02 DUP7 DUP7 DUP6 DUP6 PUSH1 0x40 MLOAD DUP6 PUSH4 0xFFFFFFFF AND PUSH1 0xE0 SHL DUP2 MSTORE PUSH1 0x4 ADD PUSH2 0x11B0 SWAP5 SWAP4 SWAP3 SWAP2 SWAP1 PUSH2 0x2364 JUMP JUMPDEST PUSH1 0x20 PUSH1 0x40 MLOAD DUP1 DUP4 SUB DUP2 PUSH0 DUP8 GAS CALL SWAP3 POP POP POP DUP1 ISZERO PUSH2 0x11EB JUMPI POP PUSH1 0x40 MLOAD RETURNDATASIZE PUSH1 0x1F NOT PUSH1 0x1F DUP3 ADD AND DUP3 ADD DUP1 PUSH1 0x40 MSTORE POP DUP2 ADD SWAP1 PUSH2 0x11E8 SWAP2 SWAP1 PUSH2 0x23C2 JUMP JUMPDEST PUSH1 0x1 JUMPDEST PUSH2 0x126C JUMPI RETURNDATASIZE DUP1 PUSH0 DUP2 EQ PUSH2 0x1219 JUMPI PUSH1 0x40 MLOAD SWAP2 POP PUSH1 0x1F NOT PUSH1 0x3F RETURNDATASIZE ADD AND DUP3 ADD PUSH1 0x40 MSTORE RETURNDATASIZE DUP3 MSTORE RETURNDATASIZE PUSH0 PUSH1 0x20 DUP5 ADD RETURNDATACOPY PUSH2 0x121E JUMP JUMPDEST PUSH1 0x60 SWAP2 POP JUMPDEST POP PUSH0 DUP2 MLOAD SUB PUSH2 0x1264 JUMPI DUP4 PUSH1 0x40 MLOAD PUSH32 0x64A0AE9200000000000000000000000000000000000000000000000000000000 DUP2 MSTORE PUSH1 0x4 ADD PUSH2 0x125B SWAP2 SWAP1 PUSH2 0x1CF7 JUMP JUMPDEST PUSH1 0x40 MLOAD DUP1 SWAP2 SUB SWAP1 REVERT JUMPDEST DUP1 MLOAD DUP2 PUSH1 0x20 ADD REVERT JUMPDEST PUSH4 0x150B7A02 PUSH1 0xE0 SHL PUSH28 0xFFFFFFFFFFFFFFFFFFFFFFFFFFFFFFFFFFFFFFFFFFFFFFFFFFFFFFFF NOT AND DUP2 PUSH28 0xFFFFFFFFFFFFFFFFFFFFFFFFFFFFFFFFFFFFFFFFFFFFFFFFFFFFFFFF NOT AND EQ PUSH2 0x12F5 JUMPI DUP4 PUSH1 0x40 MLOAD PUSH32 0x64A0AE9200000000000000000000000000000000000000000000000000000000 DUP2 MSTORE PUSH1 0x4 ADD PUSH2 0x12EC SWAP2 SWAP1 PUSH2 0x1CF7 JUMP JUMPDEST PUSH1 0x40 MLOAD DUP1 SWAP2 SUB SWAP1 REVERT JUMPDEST POP JUMPDEST POP POP POP POP POP JUMP JUMPDEST PUSH1 0x60 PUSH1 0x40 MLOAD DUP1 PUSH1 0x20 ADD PUSH1 0x40 MSTORE DUP1 PUSH0 DUP2 MSTORE POP SWAP1 POP SWAP1 JUMP JUMPDEST PUSH1 0x60 PUSH2 0x131F DUP3 PUSH2 0xBBE JUMP JUMPDEST POP PUSH0 PUSH2 0x1329 PUSH2 0x12FE JUMP JUMPDEST SWAP1 POP PUSH0 DUP2 MLOAD GT PUSH2 0x1347 JUMPI PUSH1 0x40 MLOAD DUP1 PUSH1 0x20 ADD PUSH1 0x40 MSTORE DUP1 PUSH0 DUP2 MSTORE POP PUSH2 0x1372 JUMP JUMPDEST DUP1 PUSH2 0x1351 DUP5 PUSH2 0x1715 JUMP JUMPDEST PUSH1 0x40 MLOAD PUSH1 0x20 ADD PUSH2 0x1362 SWAP3 SWAP2 SWAP1 PUSH2 0x22A8 JUMP JUMPDEST PUSH1 0x40 MLOAD PUSH1 0x20 DUP2 DUP4 SUB SUB DUP2 MSTORE SWAP1 PUSH1 0x40 MSTORE JUMPDEST SWAP2 POP POP SWAP2 SWAP1 POP JUMP JUMPDEST PUSH2 0x1393 DUP3 DUP3 PUSH1 0x40 MLOAD DUP1 PUSH1 0x20 ADD PUSH1 0x40 MSTORE DUP1 PUSH0 DUP2 MSTORE POP PUSH2 0x17DF JUMP JUMPDEST POP POP JUMP JUMPDEST DUP1 PUSH1 0x7 PUSH0 DUP5 DUP2 MSTORE PUSH1 0x20 ADD SWAP1 DUP2 MSTORE PUSH1 0x20 ADD PUSH0 KECCAK256 SWAP1 DUP2 PUSH2 0x13B5 SWAP2 SWAP1 PUSH2 0x258A JUMP JUMPDEST POP PUSH32 0xF8E1A15ABA9398E019F0B49DF1A4FDE98EE17AE345CB5F6B5E2C27F5033E8CE7 DUP3 PUSH1 0x40 MLOAD PUSH2 0x13E5 SWAP2 SWAP1 PUSH2 0x1E02 JUMP JUMPDEST PUSH1 0x40 MLOAD DUP1 SWAP2 SUB SWAP1 LOG1 POP POP JUMP JUMPDEST PUSH0 PUSH32 0x1FFC9A700000000000000000000000000000000000000000000000000000000 PUSH28 0xFFFFFFFFFFFFFFFFFFFFFFFFFFFFFFFFFFFFFFFFFFFFFFFFFFFFFFFF NOT AND DUP3 PUSH28 0xFFFFFFFFFFFFFFFFFFFFFFFFFFFFFFFFFFFFFFFFFFFFFFFFFFFFFFFF NOT AND EQ SWAP1 POP SWAP2 SWAP1 POP JUMP JUMPDEST PUSH0 PUSH1 0x3 PUSH0 DUP4 DUP2 MSTORE PUSH1 0x20 ADD SWAP1 DUP2 MSTORE PUSH1 0x20 ADD PUSH0 KECCAK256 PUSH0 SWAP1 SLOAD SWAP1 PUSH2 0x100 EXP SWAP1 DIV PUSH20 0xFFFFFFFFFFFFFFFFFFFFFFFFFFFFFFFFFFFFFFFF AND SWAP1 POP SWAP2 SWAP1 POP JUMP JUMPDEST DUP1 DUP1 PUSH2 0x14CB JUMPI POP PUSH0 PUSH20 0xFFFFFFFFFFFFFFFFFFFFFFFFFFFFFFFFFFFFFFFF AND DUP3 PUSH20 0xFFFFFFFFFFFFFFFFFFFFFFFFFFFFFFFFFFFFFFFF AND EQ ISZERO JUMPDEST ISZERO PUSH2 0x15FD JUMPI PUSH0 PUSH2 0x14DA DUP5 PUSH2 0xBBE JUMP JUMPDEST SWAP1 POP PUSH0 PUSH20 0xFFFFFFFFFFFFFFFFFFFFFFFFFFFFFFFFFFFFFFFF AND DUP4 PUSH20 0xFFFFFFFFFFFFFFFFFFFFFFFFFFFFFFFFFFFFFFFF AND EQ ISZERO DUP1 ISZERO PUSH2 0x1544 JUMPI POP DUP3 PUSH20 0xFFFFFFFFFFFFFFFFFFFFFFFFFFFFFFFFFFFFFFFF AND DUP2 PUSH20 0xFFFFFFFFFFFFFFFFFFFFFFFFFFFFFFFFFFFFFFFF AND EQ ISZERO JUMPDEST DUP1 ISZERO PUSH2 0x1557 JUMPI POP PUSH2 0x1555 DUP2 DUP5 PUSH2 0x94C JUMP JUMPDEST ISZERO JUMPDEST ISZERO PUSH2 0x1599 JUMPI DUP3 PUSH1 0x40 MLOAD PUSH32 0xA9FBF51F00000000000000000000000000000000000000000000000000000000 DUP2 MSTORE PUSH1 0x4 ADD PUSH2 0x1590 SWAP2 SWAP1 PUSH2 0x1CF7 JUMP JUMPDEST PUSH1 0x40 MLOAD DUP1 SWAP2 SUB SWAP1 REVERT JUMPDEST DUP2 ISZERO PUSH2 0x15FB JUMPI DUP4 DUP6 PUSH20 0xFFFFFFFFFFFFFFFFFFFFFFFFFFFFFFFFFFFFFFFF AND DUP3 PUSH20 0xFFFFFFFFFFFFFFFFFFFFFFFFFFFFFFFFFFFFFFFF AND PUSH32 0x8C5BE1E5EBEC7D5BD14F71427D1E84F3DD0314C0F7B2291E5B200AC8C7C3B925 PUSH1 0x40 MLOAD PUSH1 0x40 MLOAD DUP1 SWAP2 SUB SWAP1 LOG4 JUMPDEST POP JUMPDEST DUP4 PUSH1 0x5 PUSH0 DUP6 DUP2 MSTORE PUSH1 0x20 ADD SWAP1 DUP2 MSTORE PUSH1 0x20 ADD PUSH0 KECCAK256 PUSH0 PUSH2 0x100 EXP DUP2 SLOAD DUP2 PUSH20 0xFFFFFFFFFFFFFFFFFFFFFFFFFFFFFFFFFFFFFFFF MUL NOT AND SWAP1 DUP4 PUSH20 0xFFFFFFFFFFFFFFFFFFFFFFFFFFFFFFFFFFFFFFFF AND MUL OR SWAP1 SSTORE POP POP POP POP POP JUMP JUMPDEST PUSH2 0x165D DUP4 DUP4 DUP4 PUSH2 0x1802 JUMP JUMPDEST PUSH2 0x1710 JUMPI PUSH0 PUSH20 0xFFFFFFFFFFFFFFFFFFFFFFFFFFFFFFFFFFFFFFFF AND DUP4 PUSH20 0xFFFFFFFFFFFFFFFFFFFFFFFFFFFFFFFFFFFFFFFF AND SUB PUSH2 0x16D1 JUMPI DUP1 PUSH1 0x40 MLOAD PUSH32 0x7E27328900000000000000000000000000000000000000000000000000000000 DUP2 MSTORE PUSH1 0x4 ADD PUSH2 0x16C8 SWAP2 SWAP1 PUSH2 0x1E02 JUMP JUMPDEST PUSH1 0x40 MLOAD DUP1 SWAP2 SUB SWAP1 REVERT JUMPDEST DUP2 DUP2 PUSH1 0x40 MLOAD PUSH32 0x177E802F00000000000000000000000000000000000000000000000000000000 DUP2 MSTORE PUSH1 0x4 ADD PUSH2 0x1707 SWAP3 SWAP2 SWAP1 PUSH2 0x2659 JUMP JUMPDEST PUSH1 0x40 MLOAD DUP1 SWAP2 SUB SWAP1 REVERT JUMPDEST POP POP POP JUMP JUMPDEST PUSH1 0x60 PUSH0 PUSH1 0x1 PUSH2 0x1723 DUP5 PUSH2 0x18C2 JUMP JUMPDEST ADD SWAP1 POP PUSH0 DUP2 PUSH8 0xFFFFFFFFFFFFFFFF DUP2 GT ISZERO PUSH2 0x1741 JUMPI PUSH2 0x1740 PUSH2 0x1E8B JUMP JUMPDEST JUMPDEST PUSH1 0x40 MLOAD SWAP1 DUP1 DUP3 MSTORE DUP1 PUSH1 0x1F ADD PUSH1 0x1F NOT AND PUSH1 0x20 ADD DUP3 ADD PUSH1 0x40 MSTORE DUP1 ISZERO PUSH2 0x1773 JUMPI DUP2 PUSH1 0x20 ADD PUSH1 0x1 DUP3 MUL DUP1 CALLDATASIZE DUP4 CALLDATACOPY DUP1 DUP3 ADD SWAP2 POP POP SWAP1 POP JUMPDEST POP SWAP1 POP PUSH0 DUP3 PUSH1 0x20 ADD DUP3 ADD SWAP1 POP JUMPDEST PUSH1 0x1 ISZERO PUSH2 0x17D4 JUMPI DUP1 DUP1 PUSH1 0x1 SWAP1 SUB SWAP2 POP POP PUSH32 0x3031323334353637383961626364656600000000000000000000000000000000 PUSH1 0xA DUP7 MOD BYTE DUP2 MSTORE8 PUSH1 0xA DUP6 DUP2 PUSH2 0x17C9 JUMPI PUSH2 0x17C8 PUSH2 0x21E4 JUMP JUMPDEST JUMPDEST DIV SWAP5 POP PUSH0 DUP6 SUB PUSH2 0x1780 JUMPI JUMPDEST DUP2 SWAP4 POP POP POP POP SWAP2 SWAP1 POP JUMP JUMPDEST PUSH2 0x17E9 DUP4 DUP4 PUSH2 0x1A13 JUMP JUMPDEST PUSH2 0x17FD PUSH2 0x17F4 PUSH2 0xC7D JUMP JUMPDEST PUSH0 DUP6 DUP6 DUP6 PUSH2 0x1152 JUMP JUMPDEST POP POP POP JUMP JUMPDEST PUSH0 DUP1 PUSH20 0xFFFFFFFFFFFFFFFFFFFFFFFFFFFFFFFFFFFFFFFF AND DUP4 PUSH20 0xFFFFFFFFFFFFFFFFFFFFFFFFFFFFFFFFFFFFFFFF AND EQ ISZERO DUP1 ISZERO PUSH2 0x18B9 JUMPI POP DUP3 PUSH20 0xFFFFFFFFFFFFFFFFFFFFFFFFFFFFFFFFFFFFFFFF AND DUP5 PUSH20 0xFFFFFFFFFFFFFFFFFFFFFFFFFFFFFFFFFFFFFFFF AND EQ DUP1 PUSH2 0x187A JUMPI POP PUSH2 0x1879 DUP5 DUP5 PUSH2 0x94C JUMP JUMPDEST JUMPDEST DUP1 PUSH2 0x18B8 JUMPI POP DUP3 PUSH20 0xFFFFFFFFFFFFFFFFFFFFFFFFFFFFFFFFFFFFFFFF AND PUSH2 0x18A0 DUP4 PUSH2 0xC44 JUMP JUMPDEST PUSH20 0xFFFFFFFFFFFFFFFFFFFFFFFFFFFFFFFFFFFFFFFF AND EQ JUMPDEST JUMPDEST SWAP1 POP SWAP4 SWAP3 POP POP POP JUMP JUMPDEST PUSH0 DUP1 PUSH0 SWAP1 POP PUSH27 0x184F03E93FF9F4DAA797ED6E38ED64BF6A1F010000000000000000 DUP4 LT PUSH2 0x191E JUMPI PUSH27 0x184F03E93FF9F4DAA797ED6E38ED64BF6A1F010000000000000000 DUP4 DUP2 PUSH2 0x1914 JUMPI PUSH2 0x1913 PUSH2 0x21E4 JUMP JUMPDEST JUMPDEST DIV SWAP3 POP PUSH1 0x40 DUP2 ADD SWAP1 POP JUMPDEST PUSH14 0x4EE2D6D415B85ACEF8100000000 DUP4 LT PUSH2 0x195B JUMPI PUSH14 0x4EE2D6D415B85ACEF8100000000 DUP4 DUP2 PUSH2 0x1951 JUMPI PUSH2 0x1950 PUSH2 0x21E4 JUMP JUMPDEST JUMPDEST DIV SWAP3 POP PUSH1 0x20 DUP2 ADD SWAP1 POP JUMPDEST PUSH7 0x2386F26FC10000 DUP4 LT PUSH2 0x198A JUMPI PUSH7 0x2386F26FC10000 DUP4 DUP2 PUSH2 0x1980 JUMPI PUSH2 0x197F PUSH2 0x21E4 JUMP JUMPDEST JUMPDEST DIV SWAP3 POP PUSH1 0x10 DUP2 ADD SWAP1 POP JUMPDEST PUSH4 0x5F5E100 DUP4 LT PUSH2 0x19B3 JUMPI PUSH4 0x5F5E100 DUP4 DUP2 PUSH2 0x19A9 JUMPI PUSH2 0x19A8 PUSH2 0x21E4 JUMP JUMPDEST JUMPDEST DIV SWAP3 POP PUSH1 0x8 DUP2 ADD SWAP1 POP JUMPDEST PUSH2 0x2710 DUP4 LT PUSH2 0x19D8 JUMPI PUSH2 0x2710 DUP4 DUP2 PUSH2 0x19CE JUMPI PUSH2 0x19CD PUSH2 0x21E4 JUMP JUMPDEST JUMPDEST DIV SWAP3 POP PUSH1 0x4 DUP2 ADD SWAP1 POP JUMPDEST PUSH1 0x64 DUP4 LT PUSH2 0x19FB JUMPI PUSH1 0x64 DUP4 DUP2 PUSH2 0x19F1 JUMPI PUSH2 0x19F0 PUSH2 0x21E4 JUMP JUMPDEST JUMPDEST DIV SWAP3 POP PUSH1 0x2 DUP2 ADD SWAP1 POP JUMPDEST PUSH1 0xA DUP4 LT PUSH2 0x1A0A JUMPI PUSH1 0x1 DUP2 ADD SWAP1 POP JUMPDEST DUP1 SWAP2 POP POP SWAP2 SWAP1 POP JUMP JUMPDEST PUSH0 PUSH20 0xFFFFFFFFFFFFFFFFFFFFFFFFFFFFFFFFFFFFFFFF AND DUP3 PUSH20 0xFFFFFFFFFFFFFFFFFFFFFFFFFFFFFFFFFFFFFFFF AND SUB PUSH2 0x1A83 JUMPI PUSH0 PUSH1 0x40 MLOAD PUSH32 0x64A0AE9200000000000000000000000000000000000000000000000000000000 DUP2 MSTORE PUSH1 0x4 ADD PUSH2 0x1A7A SWAP2 SWAP1 PUSH2 0x1CF7 JUMP JUMPDEST PUSH1 0x40 MLOAD DUP1 SWAP2 SUB SWAP1 REVERT JUMPDEST PUSH0 PUSH2 0x1A8F DUP4 DUP4 PUSH0 PUSH2 0xC96 JUMP JUMPDEST SWAP1 POP PUSH0 PUSH20 0xFFFFFFFFFFFFFFFFFFFFFFFFFFFFFFFFFFFFFFFF AND DUP2 PUSH20 0xFFFFFFFFFFFFFFFFFFFFFFFFFFFFFFFFFFFFFFFF AND EQ PUSH2 0x1B01 JUMPI PUSH0 PUSH1 0x40 MLOAD PUSH32 0x73C6AC6E00000000000000000000000000000000000000000000000000000000 DUP2 MSTORE PUSH1 0x4 ADD PUSH2 0x1AF8 SWAP2 SWAP1 PUSH2 0x1CF7 JUMP JUMPDEST PUSH1 0x40 MLOAD DUP1 SWAP2 SUB SWAP1 REVERT JUMPDEST POP POP POP JUMP JUMPDEST PUSH0 PUSH1 0x40 MLOAD SWAP1 POP SWAP1 JUMP JUMPDEST PUSH0 DUP1 REVERT JUMPDEST PUSH0 DUP1 REVERT JUMPDEST PUSH0 PUSH32 0xFFFFFFFF00000000000000000000000000000000000000000000000000000000 DUP3 AND SWAP1 POP SWAP2 SWAP1 POP JUMP JUMPDEST PUSH2 0x1B4B DUP2 PUSH2 0x1B17 JUMP JUMPDEST DUP2 EQ PUSH2 0x1B55 JUMPI PUSH0 DUP1 REVERT JUMPDEST POP JUMP JUMPDEST PUSH0 DUP2 CALLDATALOAD SWAP1 POP PUSH2 0x1B66 DUP2 PUSH2 0x1B42 JUMP JUMPDEST SWAP3 SWAP2 POP POP JUMP JUMPDEST PUSH0 PUSH1 0x20 DUP3 DUP5 SUB SLT ISZERO PUSH2 0x1B81 JUMPI PUSH2 0x1B80 PUSH2 0x1B0F JUMP JUMPDEST JUMPDEST PUSH0 PUSH2 0x1B8E DUP5 DUP3 DUP6 ADD PUSH2 0x1B58 JUMP JUMPDEST SWAP2 POP POP SWAP3 SWAP2 POP POP JUMP JUMPDEST PUSH0 DUP2 ISZERO ISZERO SWAP1 POP SWAP2 SWAP1 POP JUMP JUMPDEST PUSH2 0x1BAB DUP2 PUSH2 0x1B97 JUMP JUMPDEST DUP3 MSTORE POP POP JUMP JUMPDEST PUSH0 PUSH1 0x20 DUP3 ADD SWAP1 POP PUSH2 0x1BC4 PUSH0 DUP4 ADD DUP5 PUSH2 0x1BA2 JUMP JUMPDEST SWAP3 SWAP2 POP POP JUMP JUMPDEST PUSH0 DUP2 MLOAD SWAP1 POP SWAP2 SWAP1 POP JUMP JUMPDEST PUSH0 DUP3 DUP3 MSTORE PUSH1 0x20 DUP3 ADD SWAP1 POP SWAP3 SWAP2 POP POP JUMP JUMPDEST DUP3 DUP2 DUP4 MCOPY PUSH0 DUP4 DUP4 ADD MSTORE POP POP POP JUMP JUMPDEST PUSH0 PUSH1 0x1F NOT PUSH1 0x1F DUP4 ADD AND SWAP1 POP SWAP2 SWAP1 POP JUMP JUMPDEST PUSH0 PUSH2 0x1C0C DUP3 PUSH2 0x1BCA JUMP JUMPDEST PUSH2 0x1C16 DUP2 DUP6 PUSH2 0x1BD4 JUMP JUMPDEST SWAP4 POP PUSH2 0x1C26 DUP2 DUP6 PUSH1 0x20 DUP7 ADD PUSH2 0x1BE4 JUMP JUMPDEST PUSH2 0x1C2F DUP2 PUSH2 0x1BF2 JUMP JUMPDEST DUP5 ADD SWAP2 POP POP SWAP3 SWAP2 POP POP JUMP JUMPDEST PUSH0 PUSH1 0x20 DUP3 ADD SWAP1 POP DUP2 DUP2 SUB PUSH0 DUP4 ADD MSTORE PUSH2 0x1C52 DUP2 DUP5 PUSH2 0x1C02 JUMP JUMPDEST SWAP1 POP SWAP3 SWAP2 POP POP JUMP JUMPDEST PUSH0 DUP2 SWAP1 POP SWAP2 SWAP1 POP JUMP JUMPDEST PUSH2 0x1C6C DUP2 PUSH2 0x1C5A JUMP JUMPDEST DUP2 EQ PUSH2 0x1C76 JUMPI PUSH0 DUP1 REVERT JUMPDEST POP JUMP JUMPDEST PUSH0 DUP2 CALLDATALOAD SWAP1 POP PUSH2 0x1C87 DUP2 PUSH2 0x1C63 JUMP JUMPDEST SWAP3 SWAP2 POP POP JUMP JUMPDEST PUSH0 PUSH1 0x20 DUP3 DUP5 SUB SLT ISZERO PUSH2 0x1CA2 JUMPI PUSH2 0x1CA1 PUSH2 0x1B0F JUMP JUMPDEST JUMPDEST PUSH0 PUSH2 0x1CAF DUP5 DUP3 DUP6 ADD PUSH2 0x1C79 JUMP JUMPDEST SWAP2 POP POP SWAP3 SWAP2 POP POP JUMP JUMPDEST PUSH0 PUSH20 0xFFFFFFFFFFFFFFFFFFFFFFFFFFFFFFFFFFFFFFFF DUP3 AND SWAP1 POP SWAP2 SWAP1 POP JUMP JUMPDEST PUSH0 PUSH2 0x1CE1 DUP3 PUSH2 0x1CB8 JUMP JUMPDEST SWAP1 POP SWAP2 SWAP1 POP JUMP JUMPDEST PUSH2 0x1CF1 DUP2 PUSH2 0x1CD7 JUMP JUMPDEST DUP3 MSTORE POP POP JUMP JUMPDEST PUSH0 PUSH1 0x20 DUP3 ADD SWAP1 POP PUSH2 0x1D0A PUSH0 DUP4 ADD DUP5 PUSH2 0x1CE8 JUMP JUMPDEST SWAP3 SWAP2 POP POP JUMP JUMPDEST PUSH2 0x1D19 DUP2 PUSH2 0x1CD7 JUMP JUMPDEST DUP2 EQ PUSH2 0x1D23 JUMPI PUSH0 DUP1 REVERT JUMPDEST POP JUMP JUMPDEST PUSH0 DUP2 CALLDATALOAD SWAP1 POP PUSH2 0x1D34 DUP2 PUSH2 0x1D10 JUMP JUMPDEST SWAP3 SWAP2 POP POP JUMP JUMPDEST PUSH0 DUP1 PUSH1 0x40 DUP4 DUP6 SUB SLT ISZERO PUSH2 0x1D50 JUMPI PUSH2 0x1D4F PUSH2 0x1B0F JUMP JUMPDEST JUMPDEST PUSH0 PUSH2 0x1D5D DUP6 DUP3 DUP7 ADD PUSH2 0x1D26 JUMP JUMPDEST SWAP3 POP POP PUSH1 0x20 PUSH2 0x1D6E DUP6 DUP3 DUP7 ADD PUSH2 0x1C79 JUMP JUMPDEST SWAP2 POP POP SWAP3 POP SWAP3 SWAP1 POP JUMP JUMPDEST PUSH0 DUP1 PUSH0 PUSH1 0x60 DUP5 DUP7 SUB SLT ISZERO PUSH2 0x1D8F JUMPI PUSH2 0x1D8E PUSH2 0x1B0F JUMP JUMPDEST JUMPDEST PUSH0 PUSH2 0x1D9C DUP7 DUP3 DUP8 ADD PUSH2 0x1D26 JUMP JUMPDEST SWAP4 POP POP PUSH1 0x20 PUSH2 0x1DAD DUP7 DUP3 DUP8 ADD PUSH2 0x1D26 JUMP JUMPDEST SWAP3 POP POP PUSH1 0x40 PUSH2 0x1DBE DUP7 DUP3 DUP8 ADD PUSH2 0x1C79 JUMP JUMPDEST SWAP2 POP POP SWAP3 POP SWAP3 POP SWAP3 JUMP JUMPDEST PUSH0 PUSH1 0x20 DUP3 DUP5 SUB SLT ISZERO PUSH2 0x1DDD JUMPI PUSH2 0x1DDC PUSH2 0x1B0F JUMP JUMPDEST JUMPDEST PUSH0 PUSH2 0x1DEA DUP5 DUP3 DUP6 ADD PUSH2 0x1D26 JUMP JUMPDEST SWAP2 POP POP SWAP3 SWAP2 POP POP JUMP JUMPDEST PUSH2 0x1DFC DUP2 PUSH2 0x1C5A JUMP JUMPDEST DUP3 MSTORE POP POP JUMP JUMPDEST PUSH0 PUSH1 0x20 DUP3 ADD SWAP1 POP PUSH2 0x1E15 PUSH0 DUP4 ADD DUP5 PUSH2 0x1DF3 JUMP JUMPDEST SWAP3 SWAP2 POP POP JUMP JUMPDEST PUSH2 0x1E24 DUP2 PUSH2 0x1B97 JUMP JUMPDEST DUP2 EQ PUSH2 0x1E2E JUMPI PUSH0 DUP1 REVERT JUMPDEST POP JUMP JUMPDEST PUSH0 DUP2 CALLDATALOAD SWAP1 POP PUSH2 0x1E3F DUP2 PUSH2 0x1E1B JUMP JUMPDEST SWAP3 SWAP2 POP POP JUMP JUMPDEST PUSH0 DUP1 PUSH1 0x40 DUP4 DUP6 SUB SLT ISZERO PUSH2 0x1E5B JUMPI PUSH2 0x1E5A PUSH2 0x1B0F JUMP JUMPDEST JUMPDEST PUSH0 PUSH2 0x1E68 DUP6 DUP3 DUP7 ADD PUSH2 0x1D26 JUMP JUMPDEST SWAP3 POP POP PUSH1 0x20 PUSH2 0x1E79 DUP6 DUP3 DUP7 ADD PUSH2 0x1E31 JUMP JUMPDEST SWAP2 POP POP SWAP3 POP SWAP3 SWAP1 POP JUMP JUMPDEST PUSH0 DUP1 REVERT JUMPDEST PUSH0 DUP1 REVERT JUMPDEST PUSH32 0x4E487B7100000000000000000000000000000000000000000000000000000000 PUSH0 MSTORE PUSH1 0x41 PUSH1 0x4 MSTORE PUSH1 0x24 PUSH0 REVERT JUMPDEST PUSH2 0x1EC1 DUP3 PUSH2 0x1BF2 JUMP JUMPDEST DUP2 ADD DUP2 DUP2 LT PUSH8 0xFFFFFFFFFFFFFFFF DUP3 GT OR ISZERO PUSH2 0x1EE0 JUMPI PUSH2 0x1EDF PUSH2 0x1E8B JUMP JUMPDEST JUMPDEST DUP1 PUSH1 0x40 MSTORE POP POP POP JUMP JUMPDEST PUSH0 PUSH2 0x1EF2 PUSH2 0x1B06 JUMP JUMPDEST SWAP1 POP PUSH2 0x1EFE DUP3 DUP3 PUSH2 0x1EB8 JUMP JUMPDEST SWAP2 SWAP1 POP JUMP JUMPDEST PUSH0 PUSH8 0xFFFFFFFFFFFFFFFF DUP3 GT ISZERO PUSH2 0x1F1D JUMPI PUSH2 0x1F1C PUSH2 0x1E8B JUMP JUMPDEST JUMPDEST PUSH2 0x1F26 DUP3 PUSH2 0x1BF2 JUMP JUMPDEST SWAP1 POP PUSH1 0x20 DUP2 ADD SWAP1 POP SWAP2 SWAP1 POP JUMP JUMPDEST DUP3 DUP2 DUP4 CALLDATACOPY PUSH0 DUP4 DUP4 ADD MSTORE POP POP POP JUMP JUMPDEST PUSH0 PUSH2 0x1F53 PUSH2 0x1F4E DUP5 PUSH2 0x1F03 JUMP JUMPDEST PUSH2 0x1EE9 JUMP JUMPDEST SWAP1 POP DUP3 DUP2 MSTORE PUSH1 0x20 DUP2 ADD DUP5 DUP5 DUP5 ADD GT ISZERO PUSH2 0x1F6F JUMPI PUSH2 0x1F6E PUSH2 0x1E87 JUMP JUMPDEST JUMPDEST PUSH2 0x1F7A DUP5 DUP3 DUP6 PUSH2 0x1F33 JUMP JUMPDEST POP SWAP4 SWAP3 POP POP POP JUMP JUMPDEST PUSH0 DUP3 PUSH1 0x1F DUP4 ADD SLT PUSH2 0x1F96 JUMPI PUSH2 0x1F95 PUSH2 0x1E83 JUMP JUMPDEST JUMPDEST DUP2 CALLDATALOAD PUSH2 0x1FA6 DUP5 DUP3 PUSH1 0x20 DUP7 ADD PUSH2 0x1F41 JUMP JUMPDEST SWAP2 POP POP SWAP3 SWAP2 POP POP JUMP JUMPDEST PUSH0 DUP1 PUSH0 DUP1 PUSH1 0x80 DUP6 DUP8 SUB SLT ISZERO PUSH2 0x1FC7 JUMPI PUSH2 0x1FC6 PUSH2 0x1B0F JUMP JUMPDEST JUMPDEST PUSH0 PUSH2 0x1FD4 DUP8 DUP3 DUP9 ADD PUSH2 0x1D26 JUMP JUMPDEST SWAP5 POP POP PUSH1 0x20 PUSH2 0x1FE5 DUP8 DUP3 DUP9 ADD PUSH2 0x1D26 JUMP JUMPDEST SWAP4 POP POP PUSH1 0x40 PUSH2 0x1FF6 DUP8 DUP3 DUP9 ADD PUSH2 0x1C79 JUMP JUMPDEST SWAP3 POP POP PUSH1 0x60 DUP6 ADD CALLDATALOAD PUSH8 0xFFFFFFFFFFFFFFFF DUP2 GT ISZERO PUSH2 0x2017 JUMPI PUSH2 0x2016 PUSH2 0x1B13 JUMP JUMPDEST JUMPDEST PUSH2 0x2023 DUP8 DUP3 DUP9 ADD PUSH2 0x1F82 JUMP JUMPDEST SWAP2 POP POP SWAP3 SWAP6 SWAP2 SWAP5 POP SWAP3 POP JUMP JUMPDEST PUSH0 DUP1 PUSH1 0x40 DUP4 DUP6 SUB SLT ISZERO PUSH2 0x2045 JUMPI PUSH2 0x2044 PUSH2 0x1B0F JUMP JUMPDEST JUMPDEST PUSH0 PUSH2 0x2052 DUP6 DUP3 DUP7 ADD PUSH2 0x1D26 JUMP JUMPDEST SWAP3 POP POP PUSH1 0x20 PUSH2 0x2063 DUP6 DUP3 DUP7 ADD PUSH2 0x1D26 JUMP JUMPDEST SWAP2 POP POP SWAP3 POP SWAP3 SWAP1 POP JUMP JUMPDEST PUSH0 PUSH8 0xFFFFFFFFFFFFFFFF DUP3 GT ISZERO PUSH2 0x2087 JUMPI PUSH2 0x2086 PUSH2 0x1E8B JUMP JUMPDEST JUMPDEST PUSH2 0x2090 DUP3 PUSH2 0x1BF2 JUMP JUMPDEST SWAP1 POP PUSH1 0x20 DUP2 ADD SWAP1 POP SWAP2 SWAP1 POP JUMP JUMPDEST PUSH0 PUSH2 0x20AF PUSH2 0x20AA DUP5 PUSH2 0x206D JUMP JUMPDEST PUSH2 0x1EE9 JUMP JUMPDEST SWAP1 POP DUP3 DUP2 MSTORE PUSH1 0x20 DUP2 ADD DUP5 DUP5 DUP5 ADD GT ISZERO PUSH2 0x20CB JUMPI PUSH2 0x20CA PUSH2 0x1E87 JUMP JUMPDEST JUMPDEST PUSH2 0x20D6 DUP5 DUP3 DUP6 PUSH2 0x1F33 JUMP JUMPDEST POP SWAP4 SWAP3 POP POP POP JUMP JUMPDEST PUSH0 DUP3 PUSH1 0x1F DUP4 ADD SLT PUSH2 0x20F2 JUMPI PUSH2 0x20F1 PUSH2 0x1E83 JUMP JUMPDEST JUMPDEST DUP2 CALLDATALOAD PUSH2 0x2102 DUP5 DUP3 PUSH1 0x20 DUP7 ADD PUSH2 0x209D JUMP JUMPDEST SWAP2 POP POP SWAP3 SWAP2 POP POP JUMP JUMPDEST PUSH0 PUSH1 0x20 DUP3 DUP5 SUB SLT ISZERO PUSH2 0x2120 JUMPI PUSH2 0x211F PUSH2 0x1B0F JUMP JUMPDEST JUMPDEST PUSH0 DUP3 ADD CALLDATALOAD PUSH8 0xFFFFFFFFFFFFFFFF DUP2 GT ISZERO PUSH2 0x213D JUMPI PUSH2 0x213C PUSH2 0x1B13 JUMP JUMPDEST JUMPDEST PUSH2 0x2149 DUP5 DUP3 DUP6 ADD PUSH2 0x20DE JUMP JUMPDEST SWAP2 POP POP SWAP3 SWAP2 POP POP JUMP JUMPDEST PUSH32 0x4E487B7100000000000000000000000000000000000000000000000000000000 PUSH0 MSTORE PUSH1 0x22 PUSH1 0x4 MSTORE PUSH1 0x24 PUSH0 REVERT JUMPDEST PUSH0 PUSH1 0x2 DUP3 DIV SWAP1 POP PUSH1 0x1 DUP3 AND DUP1 PUSH2 0x2196 JUMPI PUSH1 0x7F DUP3 AND SWAP2 POP JUMPDEST PUSH1 0x20 DUP3 LT DUP2 SUB PUSH2 0x21A9 JUMPI PUSH2 0x21A8 PUSH2 0x2152 JUMP JUMPDEST JUMPDEST POP SWAP2 SWAP1 POP JUMP JUMPDEST PUSH0 PUSH1 0x60 DUP3 ADD SWAP1 POP PUSH2 0x21C2 PUSH0 DUP4 ADD DUP7 PUSH2 0x1CE8 JUMP JUMPDEST PUSH2 0x21CF PUSH1 0x20 DUP4 ADD DUP6 PUSH2 0x1DF3 JUMP JUMPDEST PUSH2 0x21DC PUSH1 0x40 DUP4 ADD DUP5 PUSH2 0x1CE8 JUMP JUMPDEST SWAP5 SWAP4 POP POP POP POP JUMP JUMPDEST PUSH32 0x4E487B7100000000000000000000000000000000000000000000000000000000 PUSH0 MSTORE PUSH1 0x12 PUSH1 0x4 MSTORE PUSH1 0x24 PUSH0 REVERT JUMPDEST PUSH32 0x4E487B7100000000000000000000000000000000000000000000000000000000 PUSH0 MSTORE PUSH1 0x11 PUSH1 0x4 MSTORE PUSH1 0x24 PUSH0 REVERT JUMPDEST PUSH0 PUSH2 0x2248 DUP3 PUSH2 0x1C5A JUMP JUMPDEST SWAP2 POP PUSH2 0x2253 DUP4 PUSH2 0x1C5A JUMP JUMPDEST SWAP3 POP DUP3 PUSH2 0x2263 JUMPI PUSH2 0x2262 PUSH2 0x21E4 JUMP JUMPDEST JUMPDEST DUP3 DUP3 DIV SWAP1 POP SWAP3 SWAP2 POP POP JUMP JUMPDEST PUSH0 DUP2 SWAP1 POP SWAP3 SWAP2 POP POP JUMP JUMPDEST PUSH0 PUSH2 0x2282 DUP3 PUSH2 0x1BCA JUMP JUMPDEST PUSH2 0x228C DUP2 DUP6 PUSH2 0x226E JUMP JUMPDEST SWAP4 POP PUSH2 0x229C DUP2 DUP6 PUSH1 0x20 DUP7 ADD PUSH2 0x1BE4 JUMP JUMPDEST DUP1 DUP5 ADD SWAP2 POP POP SWAP3 SWAP2 POP POP JUMP JUMPDEST PUSH0 PUSH2 0x22B3 DUP3 DUP6 PUSH2 0x2278 JUMP JUMPDEST SWAP2 POP PUSH2 0x22BF DUP3 DUP5 PUSH2 0x2278 JUMP JUMPDEST SWAP2 POP DUP2 SWAP1 POP SWAP4 SWAP3 POP POP POP JUMP JUMPDEST PUSH0 PUSH2 0x22D5 DUP3 PUSH2 0x1C5A JUMP JUMPDEST SWAP2 POP PUSH32 0xFFFFFFFFFFFFFFFFFFFFFFFFFFFFFFFFFFFFFFFFFFFFFFFFFFFFFFFFFFFFFFFF DUP3 SUB PUSH2 0x2307 JUMPI PUSH2 0x2306 PUSH2 0x2211 JUMP JUMPDEST JUMPDEST PUSH1 0x1 DUP3 ADD SWAP1 POP SWAP2 SWAP1 POP JUMP JUMPDEST PUSH0 DUP2 MLOAD SWAP1 POP SWAP2 SWAP1 POP JUMP JUMPDEST PUSH0 DUP3 DUP3 MSTORE PUSH1 0x20 DUP3 ADD SWAP1 POP SWAP3 SWAP2 POP POP JUMP JUMPDEST PUSH0 PUSH2 0x2336 DUP3 PUSH2 0x2312 JUMP JUMPDEST PUSH2 0x2340 DUP2 DUP6 PUSH2 0x231C JUMP JUMPDEST SWAP4 POP PUSH2 0x2350 DUP2 DUP6 PUSH1 0x20 DUP7 ADD PUSH2 0x1BE4 JUMP JUMPDEST PUSH2 0x2359 DUP2 PUSH2 0x1BF2 JUMP JUMPDEST DUP5 ADD SWAP2 POP POP SWAP3 SWAP2 POP POP JUMP JUMPDEST PUSH0 PUSH1 0x80 DUP3 ADD SWAP1 POP PUSH2 0x2377 PUSH0 DUP4 ADD DUP8 PUSH2 0x1CE8 JUMP JUMPDEST PUSH2 0x2384 PUSH1 0x20 DUP4 ADD DUP7 PUSH2 0x1CE8 JUMP JUMPDEST PUSH2 0x2391 PUSH1 0x40 DUP4 ADD DUP6 PUSH2 0x1DF3 JUMP JUMPDEST DUP2 DUP2 SUB PUSH1 0x60 DUP4 ADD MSTORE PUSH2 0x23A3 DUP2 DUP5 PUSH2 0x232C JUMP JUMPDEST SWAP1 POP SWAP6 SWAP5 POP POP POP POP POP JUMP JUMPDEST PUSH0 DUP2 MLOAD SWAP1 POP PUSH2 0x23BC DUP2 PUSH2 0x1B42 JUMP JUMPDEST SWAP3 SWAP2 POP POP JUMP JUMPDEST PUSH0 PUSH1 0x20 DUP3 DUP5 SUB SLT ISZERO PUSH2 0x23D7 JUMPI PUSH2 0x23D6 PUSH2 0x1B0F JUMP JUMPDEST JUMPDEST PUSH0 PUSH2 0x23E4 DUP5 DUP3 DUP6 ADD PUSH2 0x23AE JUMP JUMPDEST SWAP2 POP POP SWAP3 SWAP2 POP POP JUMP JUMPDEST PUSH0 DUP2 SWAP1 POP DUP2 PUSH0 MSTORE PUSH1 0x20 PUSH0 KECCAK256 SWAP1 POP SWAP2 SWAP1 POP JUMP JUMPDEST PUSH0 PUSH1 0x20 PUSH1 0x1F DUP4 ADD DIV SWAP1 POP SWAP2 SWAP1 POP JUMP JUMPDEST PUSH0 DUP3 DUP3 SHL SWAP1 POP SWAP3 SWAP2 POP POP JUMP JUMPDEST PUSH0 PUSH1 0x8 DUP4 MUL PUSH2 0x2449 PUSH32 0xFFFFFFFFFFFFFFFFFFFFFFFFFFFFFFFFFFFFFFFFFFFFFFFFFFFFFFFFFFFFFFFF DUP3 PUSH2 0x240E JUMP JUMPDEST PUSH2 0x2453 DUP7 DUP4 PUSH2 0x240E JUMP JUMPDEST SWAP6 POP DUP1 NOT DUP5 AND SWAP4 POP DUP1 DUP7 AND DUP5 OR SWAP3 POP POP POP SWAP4 SWAP3 POP POP POP JUMP JUMPDEST PUSH0 DUP2 SWAP1 POP SWAP2 SWAP1 POP JUMP JUMPDEST PUSH0 PUSH2 0x248E PUSH2 0x2489 PUSH2 0x2484 DUP5 PUSH2 0x1C5A JUMP JUMPDEST PUSH2 0x246B JUMP JUMPDEST PUSH2 0x1C5A JUMP JUMPDEST SWAP1 POP SWAP2 SWAP1 POP JUMP JUMPDEST PUSH0 DUP2 SWAP1 POP SWAP2 SWAP1 POP JUMP JUMPDEST PUSH2 0x24A7 DUP4 PUSH2 0x2474 JUMP JUMPDEST PUSH2 0x24BB PUSH2 0x24B3 DUP3 PUSH2 0x2495 JUMP JUMPDEST DUP5 DUP5 SLOAD PUSH2 0x241A JUMP JUMPDEST DUP3 SSTORE POP POP POP POP JUMP JUMPDEST PUSH0 SWAP1 JUMP JUMPDEST PUSH2 0x24CF PUSH2 0x24C3 JUMP JUMPDEST PUSH2 0x24DA DUP2 DUP5 DUP5 PUSH2 0x249E JUMP JUMPDEST POP POP POP JUMP JUMPDEST JUMPDEST DUP2 DUP2 LT ISZERO PUSH2 0x24FD JUMPI PUSH2 0x24F2 PUSH0 DUP3 PUSH2 0x24C7 JUMP JUMPDEST PUSH1 0x1 DUP2 ADD SWAP1 POP PUSH2 0x24E0 JUMP JUMPDEST POP POP JUMP JUMPDEST PUSH1 0x1F DUP3 GT ISZERO PUSH2 0x2542 JUMPI PUSH2 0x2513 DUP2 PUSH2 0x23ED JUMP JUMPDEST PUSH2 0x251C DUP5 PUSH2 0x23FF JUMP JUMPDEST DUP2 ADD PUSH1 0x20 DUP6 LT ISZERO PUSH2 0x252B JUMPI DUP2 SWAP1 POP JUMPDEST PUSH2 0x253F PUSH2 0x2537 DUP6 PUSH2 0x23FF JUMP JUMPDEST DUP4 ADD DUP3 PUSH2 0x24DF JUMP JUMPDEST POP POP JUMPDEST POP POP POP JUMP JUMPDEST PUSH0 DUP3 DUP3 SHR SWAP1 POP SWAP3 SWAP2 POP POP JUMP JUMPDEST PUSH0 PUSH2 0x2562 PUSH0 NOT DUP5 PUSH1 0x8 MUL PUSH2 0x2547 JUMP JUMPDEST NOT DUP1 DUP4 AND SWAP2 POP POP SWAP3 SWAP2 POP POP JUMP JUMPDEST PUSH0 PUSH2 0x257A DUP4 DUP4 PUSH2 0x2553 JUMP JUMPDEST SWAP2 POP DUP3 PUSH1 0x2 MUL DUP3 OR SWAP1 POP SWAP3 SWAP2 POP POP JUMP JUMPDEST PUSH2 0x2593 DUP3 PUSH2 0x1BCA JUMP JUMPDEST PUSH8 0xFFFFFFFFFFFFFFFF DUP2 GT ISZERO PUSH2 0x25AC JUMPI PUSH2 0x25AB PUSH2 0x1E8B JUMP JUMPDEST JUMPDEST PUSH2 0x25B6 DUP3 SLOAD PUSH2 0x217F JUMP JUMPDEST PUSH2 0x25C1 DUP3 DUP3 DUP6 PUSH2 0x2501 JUMP JUMPDEST PUSH0 PUSH1 0x20 SWAP1 POP PUSH1 0x1F DUP4 GT PUSH1 0x1 DUP2 EQ PUSH2 0x25F2 JUMPI PUSH0 DUP5 ISZERO PUSH2 0x25E0 JUMPI DUP3 DUP8 ADD MLOAD SWAP1 POP JUMPDEST PUSH2 0x25EA DUP6 DUP3 PUSH2 0x256F JUMP JUMPDEST DUP7 SSTORE POP PUSH2 0x2651 JUMP JUMPDEST PUSH1 0x1F NOT DUP5 AND PUSH2 0x2600 DUP7 PUSH2 0x23ED JUMP JUMPDEST PUSH0 JUMPDEST DUP3 DUP2 LT ISZERO PUSH2 0x2627 JUMPI DUP5 DUP10 ADD MLOAD DUP3 SSTORE PUSH1 0x1 DUP3 ADD SWAP2 POP PUSH1 0x20 DUP6 ADD SWAP5 POP PUSH1 0x20 DUP2 ADD SWAP1 POP PUSH2 0x2602 JUMP JUMPDEST DUP7 DUP4 LT ISZERO PUSH2 0x2644 JUMPI DUP5 DUP10 ADD MLOAD PUSH2 0x2640 PUSH1 0x1F DUP10 AND DUP3 PUSH2 0x2553 JUMP JUMPDEST DUP4 SSTORE POP JUMPDEST PUSH1 0x1 PUSH1 0x2 DUP9 MUL ADD DUP9 SSTORE POP POP POP JUMPDEST POP POP POP POP POP POP JUMP JUMPDEST PUSH0 PUSH1 0x40 DUP3 ADD SWAP1 POP PUSH2 0x266C PUSH0 DUP4 ADD DUP6 PUSH2 0x1CE8 JUMP JUMPDEST PUSH2 0x2679 PUSH1 0x20 DUP4 ADD DUP5 PUSH2 0x1DF3 JUMP JUMPDEST SWAP4 SWAP3 POP POP POP JUMP INVALID LOG2 PUSH5 0x6970667358 0x22 SLT KECCAK256 0xA5 LOG2 CODESIZE SAR PUSH21 0x89A357B6B2A0ECD8D0C600EC3AEB2A0A3FE3350AFF CALL MOD 0xAE LT CALLVALUE DUP14 PUSH5 0x736F6C6343 STOP ADDMOD BYTE STOP CALLER "
		},
		"gasEstimates": {
			"creation": {
				"codeDepositCost": "1982000",
				"executionCost": "infinite",
				"totalCost": "infinite"
			},
			"external": {
				"approve(address,uint256)": "infinite",
				"balanceOf(address)": "infinite",
				"calculateFee(uint256)": "infinite",
				"getApproved(uint256)": "infinite",
				"getTokenURI(uint256)": "infinite",
				"isApprovedForAll(address,address)": "infinite",
				"mintNFT(string)": "infinite",
				"name()": "infinite",
				"owner()": "2538",
				"ownerOf(uint256)": "infinite",
				"renounceOwnership()": "infinite",
				"safeTransferFrom(address,address,uint256)": "infinite",
				"safeTransferFrom(address,address,uint256,bytes)": "infinite",
				"setApprovalForAll(address,bool)": "infinite",
				"supportsInterface(bytes4)": "881",
				"symbol()": "infinite",
				"tokenCounter()": "2469",
				"tokenURI(uint256)": "infinite",
				"transferFrom(address,address,uint256)": "infinite",
				"transferOwnership(address)": "infinite"
			}
		},
		"methodIdentifiers": {
			"approve(address,uint256)": "095ea7b3",
			"balanceOf(address)": "70a08231",
			"calculateFee(uint256)": "99a5d747",
			"getApproved(uint256)": "081812fc",
			"getTokenURI(uint256)": "3bb3a24d",
			"isApprovedForAll(address,address)": "e985e9c5",
			"mintNFT(string)": "fb37e883",
			"name()": "06fdde03",
			"owner()": "8da5cb5b",
			"ownerOf(uint256)": "6352211e",
			"renounceOwnership()": "715018a6",
			"safeTransferFrom(address,address,uint256)": "42842e0e",
			"safeTransferFrom(address,address,uint256,bytes)": "b88d4fde",
			"setApprovalForAll(address,bool)": "a22cb465",
			"supportsInterface(bytes4)": "01ffc9a7",
			"symbol()": "95d89b41",
			"tokenCounter()": "d082e381",
			"tokenURI(uint256)": "c87b56dd",
			"transferFrom(address,address,uint256)": "23b872dd",
			"transferOwnership(address)": "f2fde38b"
		}
	},
	"abi": [
		{
			"inputs": [],
			"stateMutability": "nonpayable",
			"type": "constructor"
		},
		{
			"inputs": [
				{
					"internalType": "address",
					"name": "sender",
					"type": "address"
				},
				{
					"internalType": "uint256",
					"name": "tokenId",
					"type": "uint256"
				},
				{
					"internalType": "address",
					"name": "owner",
					"type": "address"
				}
			],
			"name": "ERC721IncorrectOwner",
			"type": "error"
		},
		{
			"inputs": [
				{
					"internalType": "address",
					"name": "operator",
					"type": "address"
				},
				{
					"internalType": "uint256",
					"name": "tokenId",
					"type": "uint256"
				}
			],
			"name": "ERC721InsufficientApproval",
			"type": "error"
		},
		{
			"inputs": [
				{
					"internalType": "address",
					"name": "approver",
					"type": "address"
				}
			],
			"name": "ERC721InvalidApprover",
			"type": "error"
		},
		{
			"inputs": [
				{
					"internalType": "address",
					"name": "operator",
					"type": "address"
				}
			],
			"name": "ERC721InvalidOperator",
			"type": "error"
		},
		{
			"inputs": [
				{
					"internalType": "address",
					"name": "owner",
					"type": "address"
				}
			],
			"name": "ERC721InvalidOwner",
			"type": "error"
		},
		{
			"inputs": [
				{
					"internalType": "address",
					"name": "receiver",
					"type": "address"
				}
			],
			"name": "ERC721InvalidReceiver",
			"type": "error"
		},
		{
			"inputs": [
				{
					"internalType": "address",
					"name": "sender",
					"type": "address"
				}
			],
			"name": "ERC721InvalidSender",
			"type": "error"
		},
		{
			"inputs": [
				{
					"internalType": "uint256",
					"name": "tokenId",
					"type": "uint256"
				}
			],
			"name": "ERC721NonexistentToken",
			"type": "error"
		},
		{
			"inputs": [
				{
					"internalType": "address",
					"name": "owner",
					"type": "address"
				}
			],
			"name": "OwnableInvalidOwner",
			"type": "error"
		},
		{
			"inputs": [
				{
					"internalType": "address",
					"name": "account",
					"type": "address"
				}
			],
			"name": "OwnableUnauthorizedAccount",
			"type": "error"
		},
		{
			"anonymous": false,
			"inputs": [
				{
					"indexed": true,
					"internalType": "address",
					"name": "owner",
					"type": "address"
				},
				{
					"indexed": true,
					"internalType": "address",
					"name": "approved",
					"type": "address"
				},
				{
					"indexed": true,
					"internalType": "uint256",
					"name": "tokenId",
					"type": "uint256"
				}
			],
			"name": "Approval",
			"type": "event"
		},
		{
			"anonymous": false,
			"inputs": [
				{
					"indexed": true,
					"internalType": "address",
					"name": "owner",
					"type": "address"
				},
				{
					"indexed": true,
					"internalType": "address",
					"name": "operator",
					"type": "address"
				},
				{
					"indexed": false,
					"internalType": "bool",
					"name": "approved",
					"type": "bool"
				}
			],
			"name": "ApprovalForAll",
			"type": "event"
		},
		{
			"anonymous": false,
			"inputs": [
				{
					"indexed": false,
					"internalType": "uint256",
					"name": "_fromTokenId",
					"type": "uint256"
				},
				{
					"indexed": false,
					"internalType": "uint256",
					"name": "_toTokenId",
					"type": "uint256"
				}
			],
			"name": "BatchMetadataUpdate",
			"type": "event"
		},
		{
			"anonymous": false,
			"inputs": [
				{
					"indexed": false,
					"internalType": "uint256",
					"name": "_tokenId",
					"type": "uint256"
				}
			],
			"name": "MetadataUpdate",
			"type": "event"
		},
		{
			"anonymous": false,
			"inputs": [
				{
					"indexed": true,
					"internalType": "uint256",
					"name": "tokenId",
					"type": "uint256"
				},
				{
					"indexed": true,
					"internalType": "address",
					"name": "owner",
					"type": "address"
				}
			],
			"name": "NFTMinted",
			"type": "event"
		},
		{
			"anonymous": false,
			"inputs": [
				{
					"indexed": true,
					"internalType": "address",
					"name": "previousOwner",
					"type": "address"
				},
				{
					"indexed": true,
					"internalType": "address",
					"name": "newOwner",
					"type": "address"
				}
			],
			"name": "OwnershipTransferred",
			"type": "event"
		},
		{
			"anonymous": false,
			"inputs": [
				{
					"indexed": true,
					"internalType": "address",
					"name": "from",
					"type": "address"
				},
				{
					"indexed": true,
					"internalType": "address",
					"name": "to",
					"type": "address"
				},
				{
					"indexed": true,
					"internalType": "uint256",
					"name": "tokenId",
					"type": "uint256"
				}
			],
			"name": "Transfer",
			"type": "event"
		},
		{
			"inputs": [
				{
					"internalType": "address",
					"name": "to",
					"type": "address"
				},
				{
					"internalType": "uint256",
					"name": "tokenId",
					"type": "uint256"
				}
			],
			"name": "approve",
			"outputs": [],
			"stateMutability": "nonpayable",
			"type": "function"
		},
		{
			"inputs": [
				{
					"internalType": "address",
					"name": "owner",
					"type": "address"
				}
			],
			"name": "balanceOf",
			"outputs": [
				{
					"internalType": "uint256",
					"name": "",
					"type": "uint256"
				}
			],
			"stateMutability": "view",
			"type": "function"
		},
		{
			"inputs": [
				{
					"internalType": "uint256",
					"name": "amount",
					"type": "uint256"
				}
			],
			"name": "calculateFee",
			"outputs": [
				{
					"internalType": "uint256",
					"name": "",
					"type": "uint256"
				}
			],
			"stateMutability": "pure",
			"type": "function"
		},
		{
			"inputs": [
				{
					"internalType": "uint256",
					"name": "tokenId",
					"type": "uint256"
				}
			],
			"name": "getApproved",
			"outputs": [
				{
					"internalType": "address",
					"name": "",
					"type": "address"
				}
			],
			"stateMutability": "view",
			"type": "function"
		},
		{
			"inputs": [
				{
					"internalType": "uint256",
					"name": "tokenId",
					"type": "uint256"
				}
			],
			"name": "getTokenURI",
			"outputs": [
				{
					"internalType": "string",
					"name": "",
					"type": "string"
				}
			],
			"stateMutability": "view",
			"type": "function"
		},
		{
			"inputs": [
				{
					"internalType": "address",
					"name": "owner",
					"type": "address"
				},
				{
					"internalType": "address",
					"name": "operator",
					"type": "address"
				}
			],
			"name": "isApprovedForAll",
			"outputs": [
				{
					"internalType": "bool",
					"name": "",
					"type": "bool"
				}
			],
			"stateMutability": "view",
			"type": "function"
		},
		{
			"inputs": [
				{
					"internalType": "string",
					"name": "tokenURI",
					"type": "string"
				}
			],
			"name": "mintNFT",
			"outputs": [
				{
					"internalType": "uint256",
					"name": "",
					"type": "uint256"
				}
			],
			"stateMutability": "nonpayable",
			"type": "function"
		},
		{
			"inputs": [],
			"name": "name",
			"outputs": [
				{
					"internalType": "string",
					"name": "",
					"type": "string"
				}
			],
			"stateMutability": "view",
			"type": "function"
		},
		{
			"inputs": [],
			"name": "owner",
			"outputs": [
				{
					"internalType": "address",
					"name": "",
					"type": "address"
				}
			],
			"stateMutability": "view",
			"type": "function"
		},
		{
			"inputs": [
				{
					"internalType": "uint256",
					"name": "tokenId",
					"type": "uint256"
				}
			],
			"name": "ownerOf",
			"outputs": [
				{
					"internalType": "address",
					"name": "",
					"type": "address"
				}
			],
			"stateMutability": "view",
			"type": "function"
		},
		{
			"inputs": [],
			"name": "renounceOwnership",
			"outputs": [],
			"stateMutability": "nonpayable",
			"type": "function"
		},
		{
			"inputs": [
				{
					"internalType": "address",
					"name": "from",
					"type": "address"
				},
				{
					"internalType": "address",
					"name": "to",
					"type": "address"
				},
				{
					"internalType": "uint256",
					"name": "tokenId",
					"type": "uint256"
				}
			],
			"name": "safeTransferFrom",
			"outputs": [],
			"stateMutability": "nonpayable",
			"type": "function"
		},
		{
			"inputs": [
				{
					"internalType": "address",
					"name": "from",
					"type": "address"
				},
				{
					"internalType": "address",
					"name": "to",
					"type": "address"
				},
				{
					"internalType": "uint256",
					"name": "tokenId",
					"type": "uint256"
				},
				{
					"internalType": "bytes",
					"name": "data",
					"type": "bytes"
				}
			],
			"name": "safeTransferFrom",
			"outputs": [],
			"stateMutability": "nonpayable",
			"type": "function"
		},
		{
			"inputs": [
				{
					"internalType": "address",
					"name": "operator",
					"type": "address"
				},
				{
					"internalType": "bool",
					"name": "approved",
					"type": "bool"
				}
			],
			"name": "setApprovalForAll",
			"outputs": [],
			"stateMutability": "nonpayable",
			"type": "function"
		},
		{
			"inputs": [
				{
					"internalType": "bytes4",
					"name": "interfaceId",
					"type": "bytes4"
				}
			],
			"name": "supportsInterface",
			"outputs": [
				{
					"internalType": "bool",
					"name": "",
					"type": "bool"
				}
			],
			"stateMutability": "view",
			"type": "function"
		},
		{
			"inputs": [],
			"name": "symbol",
			"outputs": [
				{
					"internalType": "string",
					"name": "",
					"type": "string"
				}
			],
			"stateMutability": "view",
			"type": "function"
		},
		{
			"inputs": [],
			"name": "tokenCounter",
			"outputs": [
				{
					"internalType": "uint256",
					"name": "",
					"type": "uint256"
				}
			],
			"stateMutability": "view",
			"type": "function"
		},
		{
			"inputs": [
				{
					"internalType": "uint256",
					"name": "tokenId",
					"type": "uint256"
				}
			],
			"name": "tokenURI",
			"outputs": [
				{
					"internalType": "string",
					"name": "",
					"type": "string"
				}
			],
			"stateMutability": "view",
			"type": "function"
		},
		{
			"inputs": [
				{
					"internalType": "address",
					"name": "from",
					"type": "address"
				},
				{
					"internalType": "address",
					"name": "to",
					"type": "address"
				},
				{
					"internalType": "uint256",
					"name": "tokenId",
					"type": "uint256"
				}
			],
			"name": "transferFrom",
			"outputs": [],
			"stateMutability": "nonpayable",
			"type": "function"
		},
		{
			"inputs": [
				{
					"internalType": "address",
					"name": "newOwner",
					"type": "address"
				}
			],
			"name": "transferOwnership",
			"outputs": [],
			"stateMutability": "nonpayable",
			"type": "function"
		}
	]
}